:020000040001F9
:1080000000330020158101002F8101003181010022
:108010000000000000000000000000000000000060
:10802000000000000000000000000000338101009B
:1080300000000000000000003581010037810100D0
:108040003981010039810100858A010039810100EF
:1080500039810100000000004D88010039810100D4
:108060003981010039810100398101003981010024
:108070003981010039810100398101003981010014
:10808000398101009989010039810100398101009C
:10809000B989010039810100C189010039810100DC
:1080A000398101003981010000000000000000005A
:1080B00000000000000000000000000000000000C0
:1080C0000348854600F034FB00480047EDB6010048
:1080D00000330020401E00BF00BF00BF00BF00BF34
:1080E00000BF00BF00BF00BF00BF00BF00BFF1D195
:1080F00070470000401E00BF00BF00BF00BF00BFB0
:1081000000BF00BF00BF00BF00BF00BF00BFF1D174
:10811000704700000321094802680A4302600848CA
:1081200002680A4302600748804707480047FEE7A5
:10813000FEE7FEE7FEE7FEE7FEE70000240500405D
:1081400054050040E5890100C180010030B50B46AF
:10815000014600202022012409E00D46D5409D4221
:1081600005D31D469540491B2546954040191546A7
:10817000521E002DF1DC30BD03460B439B0703D09C
:1081800009E008C9121F08C0042AFAD203E00B78DC
:108190000370401C491C521EF9D27047D2B201E054
:1081A0000270401C491EFBD270470022F6E710B552
:1081B00013460A4604461946FFF7F0FF204610BD55
:1081C000F0B507460846584087B0C00F04904800F5
:1081D0000E46590040084908BC1A884105D2384665
:1081E00031461E4617460B460246580040081043CB
:1081F0004CD0300D039040055900400D490D0590BD
:10820000401A0290402872DA18030121000B090578
:108210000843019004980092002805D00199524229
:108220000020884100920190029840210A1A019989
:10823000009800F047F905460C466B4607CB00F066
:1082400062F9C0197141039A0E0D0023D7175640E9
:108250001A467A40164344D0049A002A2DD0029A36
:10826000012A039A15DC1205C01A91410126360530
:10827000001C7141D20F059ED20700930192029615
:108280002A46234600F05FF907B0F0BD3846314674
:10829000FAE71605224A0F46B218C01AB741012163
:1082A0000905001C4F4100187F41114618187941FB
:1082B000E20F10436D19644113E0E2076D081543A6
:1082C0006408C2071443039A01261205C01A91419B
:1082D0003605001C7141CE07400830434908C018DC
:1082E00051412A46234600F021F9CDE7FFE70498E3
:1082F00001224000C117121A00238B410498314615
:10830000C417381AA141EEE730B40124E4076340F2
:1083100030BC55E730B40124E407614030BC4FE77E
:108320000000E0FFF0B51FB488B00B990998002455
:1083300048400999C00F490049080991C0070B99A5
:108340000090490049080B9109990898A6460843EE
:108350001CD00B990A98084318D0099801244000B2
:10836000420D4800410D099824050003000B2043ED
:1083700009900B980003000B20430B9050181C49E8
:108380004018002201901446104605E000200146E6
:108390000DB0F0BD032801DA034600E003239C463C
:1083A000C11A0AAE0AE05F0008ADED5B4F00F75B53
:1083B0007D430027AA187C41491C5B1E6145F2DD04
:1083C000410004AB5A522104120C0A43240C401CF5
:1083D0000828DFDB01980290009970460191009017
:1083E000059B049A0799069800F0ADF8D0E70000C5
:1083F0000DFCFFFF0EB5C217C10F5040CA07401851
:108400000021054B0293019200910A460B4600F0B1
:108410009AF803B000BD00003304000070B5CD0F22
:108420004A0009030123090B1B0519430B4BED07F8
:108430000024520D9A4201DA002070BD074B3433FC
:108440009A4203DC9A1A00F04DF802E004495118F0
:1084500088402C43F1D0404270BD0000FF03000073
:10846000CDFBFFFFF0B51FB40646002082B00546E5
:108470004024019100901BE0019922460F463046AE
:1084800000F030F8049A059B801A994110D31046E9
:108490001946224600F016F8361A8F4101972246F7
:1084A00001200021009F00F00DF838184D41009088
:1084B0002046641E0028DFDC019B009829463246D6
:1084C00007B0F0BD10B5202A04DB0146203A9140E8
:1084D000002010BD914020239C1A0346E34019431D
:1084E000904010BD10B5202A04DB0846203AD04049
:1084F000002110BD0B46D340D0402024A21A914049
:108500000843194610BD10B5202A06DBCB170846D4
:10851000203A1041C1170B4306E00B461341D040EF
:108520002024A21A91400843194610BD10B5002B13
:1085300008DA0024401C614192185B411A4301D1C2
:108540004008400010BDF0B51FB482B005460C00D5
:1085500003D0084600F028FB02E000F025FB2030A5
:108560000246009021462846FFF7ACFF049B059A7F
:1085700004460F4618431143084314D018461043CD
:108580001BD0009840210A1A18460599FFF7AAFF48
:1085900005460E46009A05990498FFF793FF084395
:1085A00005D0012004E02046394607B0F0BD002088
:1085B000C11705430E432C43374300990E986305BA
:1085C000401A7905E40A00220C43FD0A0A3002D55C
:1085D00000200146E9E70105101969410C9C0D9D39
:1085E00000196941FFF7A2FFDFE70000F0B50C4674
:1085F0005C4085B0E40FE40703944C000026640857
:1086000059009446490802460296224321D0624608
:108610000A431ED06200570D4A000E032303550D76
:10862000012402462C492405781B1B0B360B4018ED
:1086300023432643614600901C46501AB44103D39D
:108640000098401C009002E0921800985B410028BE
:1086500003DA0020014605B0F0BD00200121090524
:108660000746864611E064461D46141BB54106D3F5
:108670006546521BB341744607430C43A646CD07DB
:1086800040084908284392185B4105460D43EAD14A
:108690001046184313D060461946504071400843B5
:1086A00006D06046101AB34106D20122002306E02C
:1086B00000220123DB0702E00122D243531000987D
:1086C00074460105381C6141029C039D00196941F3
:1086D000FFF72CFFBFE70000FD03000070B54B0063
:1086E0005B0803430BD04B005C0D0026334665420C
:1086F000B341D417AD1AA34102DB0020014670BD7F
:1087000012053018514170BD10B5002904DB012459
:10871000E40740428C412146002B04DB1C46012328
:10872000DB075242A341994200D1904210BD0000A4
:10873000064C0125064E05E0E36807CC2B430C3CB4
:1087400098471034B442F7D3FFF7BEFCB0DC010009
:10875000D0DC0100FEB500231A461B1A8A4103DB58
:108760000020014603B0F0BD4A000D0301212D0B8E
:108770000905520D0D43D10702D100186D41521E5B
:108780005110FF31FF310131002704463E46384683
:10879000009701910246012100200905FFF7A2FE82
:1087A000C3197141F818324684468E464A416146E3
:1087B0002846611A904104D36046241A95417646B2
:1087C0001F46241900986D41401C00903428E1DDBB
:1087D000F91930467041091BA84103D20022D24347
:1087E000134601E00022134601980105381C71412F
:1087F000FFF79CFEB6E770B58C180578401C6B0738
:108800005B0F01D10378401C2A1106D10278401C6D
:1088100003E006780E70401C491C5B1EF9D12B0743
:1088200005D40023521E0DD40B70491CFAE70378BF
:10883000401CCB1A921C03E01D780D70491C5B1C78
:10884000521EF9D5A142D8D3002070BDF8B500243E
:10885000FF250135012627460094284603F072FBC8
:10886000002808D034484068304204D03348002102
:108870002818344301602D1D76007F1CADB2042FF3
:10888000EBD3FF207D3003F05DFB002807D02C48A0
:1088900000210160400704432A48006900902A4FE4
:1088A000200712D00126002526420AD02748AA0018
:1088B000111808690969C004C00E8903BA58890FE4
:1088C000904776006D1C042DEED3002C30DA002486
:1088D0001D4E0021301940304156491C25D00778E3
:1088E000BD06AD0E284601F039FE80003658002E38
:1088F0001BD0BF090121A940154AA80080180068B3
:10890000009A8003800F114202D0022802D00CE0AE
:1089100003280AD1032F05D102280AD002212846B4
:1089200003F000FB39462846B047641C042CCFD323
:10893000F8BD0321F3E70000006300400060004041
:108940007C61004000050050BC270020006500400D
:10895000000700508307FF22DB0E9A408907090EAB
:10896000994000280BDA0007000F083883080848F0
:108970009B001818C36993430B43C3617047830876
:1089800004489B001B181868904308431860704700
:1089900000ED00E000E400E010B5064900200860AA
:1089A00048608860C860034940390860486004F046
:1089B000DFFD10BD4011014010B504F06FFD10BD8A
:1089C00010B507484068002807D08047002803D02A
:1089D0000022114600F0A8FD10BD02F011FD10BDEF
:1089E0008421002010B502F059FD002805D01F4950
:1089F0001D484860C8131E4988611E48018CC9B2D1
:108A000001290BD1828C120708D1028D1206120F98
:108A1000042A03D1828D1206120F0AD0012921D116
:108A2000818C09071ED1018D0906090F0A2904D07E
:108A300007E0114A01219160F5E7828D1206120FBD
:108A400005D00D290ED1808D0006000F0AD10B48EC
:108A50000168012904D00A49016001680129FCD19B
:108A6000C021416110BD0000DFFF07C000050040CC
:108A7000006C0040C00F00F00006004000EC064013
:108A800075930000F0B53C4D012185B049022846A0
:108A900003F067FA01270026384C002823D0FF2175
:108AA0002531284603F058FA00281CD0FF20253035
:108AB0002E508120324980008860607D002800D1DE
:108AC0006F600221684601702E49086808600390B3
:108AD000E17C68460172E0680190E67406CC684665
:108AE000083C90471DE00421284603F03AFA00288C
:108AF00017D0FF210931284603F02EFA002810D0A4
:108B000004F0CAF9E07C217D88420AD1607D00280A
:108B100000D16F6081201A4980008860207D04F0B8
:108B200021FAFF211D31284603F016FA00280DD046
:108B3000A07C218A884202D904F05CFD06E0FF2176
:108B40001D316E50002801D004F0AAFDFF214531EF
:108B5000284603F001FA00280CD0FF2045302E50A3
:108B6000607D002800D02F60E07C002802D0207DAE
:108B700004F0F8F905B0F0BD002000400428002002
:108B800000230040802400400FB410B503A9044B1B
:108B9000044A029800F0D8F810BC08BC04B018478A
:108BA00095AE0100702100202021020C01D010217F
:108BB0001046020A01D010460839020901D01046B9
:108BC000091F820801D01046891E420801D0881E64
:108BD0007047081A704730B47446641E2578641CC8
:108BE000AB4200D21D46635D5B00E31830BC184702
:108BF0004900CA020243100000D004204A0D01D0EF
:108C000001221043044A490D914201D10221084337
:108C1000012800D105207047FF070000F8B5044681
:108C20004F1EC8000838211815461E4608684968B6
:108C30003A4606239A4310D02A463346FFF772FB82
:108C40003A46D200083AA3181A687F1E5B68FFF7FD
:108C5000B7FA06223B469343EED1022F23D0042FCE
:108C600011D0062F2FD12A463346FFF75BFBE36A6C
:108C7000A26AFFF7A5FA2A463346FFF753FB636A59
:108C8000226AFFF79DFA2A463346FFF74BFBE3695A
:108C9000A269FFF795FA2A463346FFF743FB63695B
:108CA0002269FFF78DFA2A463346FFF73BFBE3685C
:108CB000A268FFF785FA2A463346FFF733FB63685D
:108CC0002268FFF77DFAF8BD002210B51346104662
:108CD0000149FFF78BFC10BD0000F03F10B5FFF716
:108CE0006FFA10BD002210B5134610461146FFF76B
:108CF0007DFC10BD10B50721024A00200907FFF7CF
:108D0000EDFC10BD01030000034A10B5002011075F
:108D1000FFF7E4FC10BD000001FDFFFF02E008C802
:108D2000121F08C1002AFAD170477047002001E0E5
:108D300001C1121F002AFBD17047000001490860E1
:108D4000704700009C210020FFB591B00F460546FA
:108D5000002606E025280AD0149A139990476D1C26
:108D6000761C28780028F5D1304615B0F0BD0024D7
:108D700000940121F34A029400E004436D1C2B7817
:108D80000846203B98401042F7D128782A280ED078
:108D9000022128780246303A092A15D8009A0A2377
:108DA0005A43303A80180C436D1C0090F1E701CF14
:108DB0000090002805DA0120400304430098404257
:108DC0000090022004436D1C28782E2815D1042021
:108DD000044368786D1C2A280AD101CF6D1C0290CB
:108DE0000BE002990A225143303940186D1C029061
:108DF0002878014630390929F3D928786C2810D011
:108E000006DC4C281AD068280ED06A2817D104E056
:108E1000742813D07A2812D110E0012040050443B1
:108E20000CE00121090501E0032109050C436978E3
:108E3000814203D10120000524186D1C6D1C287887
:108E400003906E281ED00CDC632831D004DC00288F
:108E50008AD0582811D1B2E064287BD069280CD17F
:108E600078E073282DD004DC6F2870D0702804D1EE
:108E7000A7E075286CD078286BD0149A1399904786
:108E8000761C62E06002400F022807D003280AD057
:108E9000042838680AD006603F1D56E03868F1178C
:108EA00006604160F8E738680680F5E70670F3E78A
:108EB0003878694608740020487404A8039001209B
:108EC00003E0386803900020C0433F1D61070FD5C1
:108ED000002101E00199491C029A0191914213DAA3
:108EE0008142F7DB019A0399895C0029F2D10BE0FA
:108EF000002101E00199491C01918142FADB019AAC
:108F00000399895C0029F5D101990098139A401AB8
:108F100000902146149B00F03BF9019980194618F6
:108F200007E0039803990078491C0391149A139958
:108F300090470198401E0190401CF2D12146149B9D
:108F4000139A009800F014F986196D1C09E741E0A6
:108F500033E034E00A200021049005916002410FC3
:108F6000022905D001CFC2179446032905D007E096
:108F7000FF1DFF08FF0003CF06E000B2C2179446B2
:108F8000042902D140B2C1178C46002261469445A3
:108F900006DA0A460021404291418C462D2102E02A
:108FA000210504D52B216A461176012103E0E10752
:108FB00001D02021F7E7019154E00A200BE01020B6
:108FC00009E01020049000210420044308200591AA
:108FD000029003E008200021059104906002410FF7
:108FE000022905D001CF00229446032906D006E0CD
:108FF000FF1DFF08FF0003CF8C4603E080B2042969
:1090000000D1C0B20021019121072BD5039970290D
:1090100006D0049A1021059B4A401A4305D00EE061
:1090200040216A461176012108E06146014306D0DD
:1090300030216A4611760399517602210191049AF2
:109040000821059B4A401A430CD16146014301D1D6
:10905000610707D530216A461176012101910299F5
:10906000491E02910399582904D037A103910FA9F1
:109070000F910DE039A1F9E76146059B049AFFF7CE
:10908000F1F9039B8C469B5C0F9A521E0F92137052
:1090900061460143F0D10F9807A9081A20300390C8
:1090A000600704D5012000048443029801E00120F8
:1090B00002900399884201DD401A00E00020411827
:1090C0000290019809180098401A0090E00306D415
:1090D0002146149B139A009800F05AF88619002034
:1090E000049008E006A9085C149A13999047049824
:1090F000401C761C049001998842F3DBE0030CD5F8
:109100002146149B139A009800F042F8861904E057
:10911000149A302013999047761C0299481E0290A9
:109120000029F5DC08E00F980F990078491C0F9191
:10913000149A13999047761C0399481E03900029AE
:10914000F1DCFBE6092801003031323334353637A3
:109150003839616263646566000000003031323383
:109160003435363738394142434445460000000023
:10917000F8B5044600251E461746880404D405E0C9
:1091800039462020B0476D1C641EF9D52846F8BD2D
:10919000FFB50446002581B01E46C80301D530271F
:1091A00000E02027880404D505E038460399B0473D
:1091B0006D1C641EF9D5284605B0F0BDF7B584B026
:1091C0000025168807461580406B1446002813D0EA
:1091D00003780598032E51D30221017021881122B2
:1091E000491C89B2218042542188491C89B22180BE
:1091F00043542088401C2080386B00281DD0054631
:109200002088059902461232B24237D811220A54F8
:1092100020881022401C80B220800A542088401CE4
:1092200020800F202A5C2388401ECA54228840B226
:10923000521C22800028F5DA0025384620300290A2
:10924000807B002806D033462246059902F050F96B
:10925000050014D10298407B002806D032462146F2
:10926000059800F0B1FD050009D1B878002823D099
:10927000059886462088001DB04202D90C2007B010
:10928000F0BD684679DF0028F9D1218803207246B5
:10929000505420881921401C80B22080115420880D
:1092A0007146401C80B2208041186846008804F056
:1092B0008DFA218840182080F878002817D021885E
:1092C00003230A46FB56C91C0598B142D6D8022191
:1092D000815421880122491C89B22180425421886D
:1092E000491C89B2218043542088401C2080786822
:1092F000002817D021880023C3560A46C91C0598A8
:10930000B142BBD80221815421880A22491C89B26A
:10931000218042542188491C89B2218043542088ED
:10932000401C2080388900280AD0009438460196D5
:10933000062202210830059B04F0BDFA05009ED1EB
:10934000388A00280AD00094384601960722032163
:109350001030059B04F0AFFA050090D1388B00283F
:109360000AD0009438460196152214211830059B26
:1093700004F0A1FA050082D1386A002806D03346ED
:109380002246059901F07AFA0500D8D1786A0028BA
:1093900006D033462246059902F0E8FA0500CED100
:1093A0000298007B002807D03346224638460599AC
:1093B00003F026FF0500C2D13878002807D03346D5
:1093C00022463846059902F005FB0500B7D128462C
:1093D00055E710B501220221002000F0EBFE002825
:1093E00001D0072812D107220221012000F0E2FE5D
:1093F000002801D0072809D100210A22084600F0E0
:10940000D9FE002801D0072800D1002010BD00009F
:1094100030B5A7B0382101A8FEF7C7FE0221684683
:109420000171002484710521C17138210FA8FEF754
:10943000BCFE012510A885810D48149024211DA88B
:10944000FEF7B3FE20A80570402021901E20229038
:10945000084B1DAA0FA9009401A800F047FA0028A4
:1094600003D00022114600F05FF827B030BD0000A5
:109470000C200020A5BF0100044842680121C90555
:109480000B46934383600A40C2607047000500505A
:1094900070B50024064D06E06968E000085C012113
:1094A00002F026FB641C28788442F5D3002070BDAE
:1094B0003C210020F8B515460C460646052A01D287
:1094C0000720F8BD02F0EAFB002803D102F0BCFB44
:1094D0000028F6D1104900204E600C70C8608D60E5
:1094E00008610E4D0DE0E0006968801900918178F7
:1094F0006A46517000780A4A694602F049FB002822
:10950000DFD12046641EE4B20028ECD1054A0021D8
:10951000024800F063F8F8BD3C210020ECDB0100BC
:10952000FDB2010079A90100BFF34F8F0449034840
:10953000C860BFF34F8F00BFFDE700000400FA05CD
:1095400000ED00E010B58268C368934203D001F0DB
:10955000DCFB002010BD052010BD002906D0002A2C
:1095600002D0531E134203D0092070470E207047CB
:109570000160838000218160C1600846704710B59A
:109580008268C3689A1A83889A4203D801F0C7FB9D
:10959000002010BD042010BDFFB5094E81B000248D
:1095A0001D46A0003758002F03D001A807C82B463E
:1095B000B847641CE4B20A2CF3D305B0F0BD000038
:1095C0002029002030B405460B8A0879CA6809684A
:1095D0000C682946A44630BC60470000094B9B68D4
:1095E000002B07D0002A07D0002805D00068037C94
:1095F000002B03D008207047072070474174426158
:109600000020704750210020FFB59007002581B051
:1096100014460E46002832D11B4F002C31D003F0E7
:1096200019FC0498786103203870334618212246CB
:1096300000204B43BC601834C10089180D704D7078
:109640008E704C601C19401C0328F5DBFD607D709A
:1096500001240E48BD702405046003211420FFF787
:1096600079F90B4804600B4C0198A060032111208C
:10967000FFF770F960683861002005B0F0BD072081
:10968000FBE7BD60FBE700005021002080E200E026
:1096900000E100E000150140FEB50D461B491746EC
:1096A0008968044600292AD0002C28D0052D01D233
:1096B0000720FEBD6069002821D0607C012820D0F1
:1096C000002604F0BBF8C0001049019089684018DA
:1096D000694604F0DDF8002815D0012101700C491D
:1096E000446049680830E2C0084901988968411817
:1096F00068460078487003F013FF0020FEBD082084
:10970000FEBD2E46DDE70420FEBD000050210020F6
:1097100000150140F8B5134D0446A96800291CD076
:10972000002C1AD06069002817D00026267404F097
:1097300085F8C700A8686946381804F0A9F8002819
:109740000DD0022101704460A8683918684600787D
:10975000487003F0E5FE3046F8BD0820F8BD04204F
:10976000F8BD00005021002010B50446094881686A
:10977000C2688088511A814207D10121064802F04F
:10978000EDFA002801D0052010BD21460148FFF761
:10979000D9FE10BD9C2700201221002070B5044680
:1097A000224888B01E460D0042601CD0A888296857
:1097B00082B21F48FFF7D1FE002815D1A889A968F9
:1097C00082B21B481030FFF7C8FE00280CD12022BF
:1097D00018496846FEF7D0FCA0680690207900285A
:1097E00004D0012103E0072008B070BD00216846C5
:1097F000017506776079002800D00E20694648750B
:10980000E0780290A0780390207801906078009032
:109810000949684602F04AFA0028E5D102F0F8FA50
:1098200002480121801C02F099FADDE71021002096
:109830009C270020ACDB010029D7010010B50446AD
:10984000064801214470401C02F0EEFA112803D1B1
:1098500021460348FFF793FE10BD000010210020B1
:10986000AC2700200248C178491EC1707047000033
:10987000742100200248C178491CC1707047000063
:1098800074210020F0B50C4693B01F216A46118068
:10989000072600279180002809D0C17849070DD5F7
:1098A00002A9FFF78BFC002809D102AD01E00025D9
:1098B0001780002C0ED0E078002802D0304613B07C
:1098C000F0BD01AA0AA92046FFF778FC0028F6D1CE
:1098D0000AAA02E068460022878068468088C3B2F0
:1098E00068460088C1B2284672DFE8E770B50D46C9
:1098F00004991646040042D0002E40D0424800226F
:109900004271C3600161242231464048FEF734FCB5
:1099100000F0D0F83D49343108461038016020315C
:10992000816038215C38FEF740FC384821783838AF
:109930000170A1788170E178C170617841706269CD
:10994000216942610161E268A168C26081600146EB
:10995000E369A269CB618A61616A002919D0014675
:10996000AC310246B83241628A60636A1B880B8060
:10997000616A436A898899800021436A06E00E2063
:1099800070BD666AB668765C5654491C9E888E42E5
:10999000F7D8A16A00291CD01C4AAC3211460C39F8
:1099A0008A608162A36A9B888B80A16A836A098826
:1099B00019800021836A04E0A66AB668765C565472
:1099C000491C9E888E42F7D82C210A5D0F49183910
:1099D0000A73216A002909D00B4914310162226AF5
:1099E00052884A80216A026A0988118061680029C8
:1099F00004D00549891D41606168416003482946DA
:109A00003838FFF73FFF70BDDC200020942600208F
:109A100010B502881A4C102A17D00021112A17D02D
:109A2000192A11D1807900280ED1607901281BD024
:109A300002281FD003281FD0042805D12171E26815
:109A40000846002A00D0904710BD8088208110BDB4
:109A50006170808821898842F9D1012005E021695F
:109A60000029F4D0884710BD022000F04BF80028F0
:109A7000F5D110BD0320F8E7032020710420F4E79E
:109A8000DC20002010B5022801D003280ED1084C9C
:109A9000207800280AD000202070607900F032F889
:109AA000002803D02169002900D0884710BD00009C
:109AB000DC20002010B507210148FEF776FB10BD21
:109AC000F420002010B50D480078012814D10C4C6A
:109AD0006078002810D16079002802D074DF002857
:109AE0000BD101206070607900F00CF8002803D0E1
:109AF0002169002900D08847002010BD942600204D
:109B0000DC200020F0B5754C87B06071002606A8F7
:109B1000069603F0C7F80127082806D000286FD161
:109B20000698002802D02770D4E00696FFF7C2FFFF
:109B30006B4D6878002802D06079012805D0A8789C
:109B400000280AD06079022807D1E168002903D0F3
:109B5000E7700820884700E0E6706079012808D1A6
:109B60006878002809D05D48193002F079FB002898
:109B700003D06079022802D00CE002206071A8783E
:109B8000002805D05548193002F06AFB002801D1A1
:109B900003206071287B002804D16079032801D15B
:109BA00004206071287E002804D16079042801D146
:109BB00066712671E16800290AD06079032801D016
:109BC000042805D12878002802D06078002818D011
:109BD000A67018216846FEF7E8FA684606700196F6
:109BE00006720396607901280FD0022816D03C4EE9
:109BF000243637465C3F03281CD004285ED13BE066
:109C000069E0A77007208847E3E7344818300190DF
:109C10006846077046820682277152E02F48183046
:109C200001906846077029894182A9880182022033
:109C3000207146E0A88A69464882288A0882284816
:109C4000243003F0A7FE002805D02878002802D091
:109C50006078002801D003202FE0022069460872B6
:109C600004200396F8701E4800213838FFF70AFEDA
:109C7000002830D1052020E0A88B69460882288C76
:109C800048821748243003F085FE002805D0287844
:109C9000002802D06078002801D004200DE00220C6
:109CA0006946087204200396F8700D480021383880
:109CB000FFF7E8FD00280ED106202071607900280A
:109CC00003D0684673DF002805D1E168002901D080
:109CD00020798847002007B0F0BD0000DC2000207C
:109CE0009426002070B5054601461C220E48FEF75A
:109CF00043FA0E4C002626702968002906D0082257
:109D0000201DFEF739FA201D7ADF02E00748001D0A
:109D10007BDF002807D1401E60806670044A002166
:109D20000448FFF75BFC70BD80270020FC2000206A
:109D3000D9D7010098DB0100F8B5214C0288002733
:109D40001E4DE689102A15D01E49112A21D0122A4B
:109D50002DD0502A1CD1C288801DB24218D1028B4E
:109D6000022A15D1C27E837E10021843C007C00F9D
:109D70000CD112E081886980014610480822163112
:109D80000C30FEF7F9F96F70002E01D100F0C0FD24
:109D9000F8BD0020C04368806F700868FFF7BAFC08
:109DA0000028F5D0A1690029F2D08847F8BD811DAF
:109DB000024808220C30FEF7DFF9E7E7FC2000201C
:109DC0008027002098DB01007CB5054608880C46FA
:109DD0000930904201D90C207CBD684671DF002813
:109DE000FAD121880820685420881B21401C80B2A9
:109DF00020802954208800A9401C80B2208040196E
:109E000006220131FEF7B8F920886946801D80B22C
:109E100020800978002900D0012129542088401C85
:109E2000208000207CBD000010B50446FFF784FFB1
:109E30002146064800F040F8204602F0C5F82046CA
:109E4000FFF7E6FD204600F0EBF810BDD42500201A
:109E500030B5184B0D4604000FCB85B003936B460D
:109E600007C324D0002D22D00020C043A082286840
:109E7000A0610020A0752146684663DF002814D148
:109E800021786846817401210182A21C04A9012065
:109E9000A0DF002809D12946204603F013F8002846
:109EA00003D12946204603F0BBFB05B030BD0E2090
:109EB000FBE700009CDB010000281ED000291CD01D
:109EC0000A88102A14D0112A14D0502A15D1CA8811
:109ED000038A891D9A4202D10B8B022B0ED08388F4
:109EE0009A420AD18369002B07D00A8B1A3118478E
:109EF000898801E00021C94381827047CA7E8B7E38
:109F000011021943C907C90F00D00121817570479B
:109F100007B584B000280DD0828A114B9A420BD02D
:109F2000827D002A08D06A46128B142A06D907209F
:109F300007B000BD0E20FBE70820F9E700220092E1
:109F400001920292039282896B461A80039106A9BC
:109F5000029101219970808A6946A6DFE8E7000036
:109F6000FFFF00001CB5002348221549082003F01C
:109F7000B9F9002803D000221146FFF7D5FA0020D6
:109F80000090694601900870684660DF002803D0A1
:109F900000221146FFF7C8FA0A4803F0BBF900286F
:109FA00003D000221146FFF7BFFA074803F090F9EB
:109FB000002803D000221146FFF7B6FA1CBD0000AE
:109FC000B02100208DD40100299E01007CB5134EE4
:109FD00000250C463060002918D06946002000F0AA
:109FE000B5F8002819D101A9012000F0AFF8002828
:109FF00013D1684601790020002901D0022004E035
:10A0000069460978002900D00B202070706800286C
:10A0100002D1FFF7DEF9054628467CBDD42000209A
:10A0200010B51C4C0188606810290DD011290AD187
:10A03000401E606007D1FFF7CCF9002803D02168EB
:10A04000002900D0884710BD00281ED10021012220
:10A05000084600F0AFF8002801D0072811D10722E8
:10A060000221012000F0A6F8002801D0072808D11D
:10A0700004220221002000F09DF8002805D00728C6
:10A0800003D02168002900D088476068401C6060C8
:10A0900010BD0000D420002010B5032000F008FA05
:10A0A000002801D0062800D1002010BDF8B50746D1
:10A0B0000024234802E0641C042C1AD2A200825817
:10A0C000BA42F8D1042C14D21D481E4E0C38002977
:10A0D00029D001290ED002290BD160002018801947
:10A0E0004578002D05D018480169002901D028467F
:10A0F0008847F8BD61006118755C8E197178002978
:10A100000CD011490A224968806851430E4A521CFA
:10A11000FFF7C2FA002801D10B4847700A48B1780E
:10A1200014300155DDE78068FFF7F4FA0648610056
:10A13000611814308919005D8D78A842D1D0F8BD1E
:10A1400068DB010030260020BC20002004280CD24F
:10A15000074A1269074B80001B5C0120984090431E
:10A1600000D001200870002070470020FAE70000AE
:10A170000005005068DB010010B5042806D0072850
:10A1800010D00A2801D103F082F810BD084813212D
:10A19000808876DF08E00028F7D000221146FFF71C
:10A1A000C3F910BDFFF78EFC0828F4D110BD0000E4
:10A1B0000020002070B50023042811D244000419A7
:10A1C0000D4D012A02D101290DD00022460080192F
:10A1D000094E801900290CD0012906D0022906D089
:10A1E0000723184670BD0D30C2B22A55F9E74270F8
:10A1F000F7E78270F5E700003026002010B5054A29
:10A200000146127A0020D20702D0084600F054F826
:10A2100010BD0000BC20002070B50E462049054648
:10A220004E608D6000200A61A9071ED5002401221E
:10A2300011462046FFF7BEFF641C042C02D2002802
:10A24000F5D012E0002810D1720804211548FFF75C
:10A2500031F9002809D1FFF71BF9002805D1114871
:10A26000114A00211438FFF7B9F9E90706D00F2287
:10A270000E4952058A600023CB608A6100280DD107
:10A2800008480B4A00211C38FFF7A8F9002805D11F
:10A290000448084A01211838FFF7A0F970BD0000F2
:10A2A000BC20002078DB0100EDA401000005005077
:10A2B00045B5010079940100FEB57A4D0722EB689F
:10A2C00092059A4302936B6800939C0006461B1903
:10A2D00000200121019349050746734C3300FEF726
:10A2E0007AFC180D1515374755677C887F8891DEF5
:10A2F0009E9E9E9E9EC8CED1D8DEDE140F21029A6D
:10A3000049059143A160E7602F70FEBDA260E76040
:10A3100060680F2252055040800209D5A160E760B5
:10A32000022E02D1E120C0000AE07D20400107E0BA
:10A33000E160A760022E01D1C82001E0FF2091302A
:10A340002E706421FDF702FF0099414300223FE097
:10A35000A260E76060680F2252055040800204D579
:10A36000A160E76019204001EAE7E160A760E3E748
:10A37000A260E76060680F2252055040800202D55B
:10A38000A160E760D1E7E160A760D7E7A260E7607E
:10A3900060680F2252055040800202D5A160E7603C
:10A3A00001E0E160A7602E700098410000220FE0FC
:10A3B000A260E76060680F2252055040800202D51B
:10A3C000A160E76001E0E160A7602E7000990022C3
:10A3D00036480068FFF760F9FEBDA260E7601BE049
:10A3E00061680120800502468A43A2600140E16065
:10A3F00010E06068012189050A468243A260084096
:10A40000E060E3E76068012189050A468243A260B3
:10A410000840E0600199C9E7E160A7602DE02348AA
:10A420004068FFF777F911218A1B01D0002807D077
:10A430000F22E96852051140A160E760EF60FEBDA0
:10A440000121C905E960012A0CD91046C8214843F9
:10A450006421FDF77BFE6968002241431348406890
:10A46000FFF71AF90F22E96852051140E160A76071
:10A47000FEBD0F214905A160E7602E70FEBD0722D9
:10A480009205AAE70D214905A160E7600121890530
:10A49000C2E70321C905A160E7608910BCE70F216D
:10A4A0004905B9E7BC200020000500505CDB010035
:10A4B000F0B500210B4C0C4D03273F048A00A25835
:10A4C00092005619326801238B40034000D00323C9
:10A4D000BA431B0413433360491C0429EED3002004
:10A4E000F0BD000068DB01000007005010B50078E7
:10A4F0000221FFF7DBFD10BD0022D2438300044997
:10A500000428CA5002D30818203002777047000090
:10A51000BC270020F0B50025ED43002A02D000231F
:10A52000042601E0042308260B4C04E09F00E759B1
:10A530007F1C04D05B1CB342F8D32846F0BD26181C
:10A540005DB2203635709E00A151002AF5D1E11888
:10A5500020310877F1E70000BC27002002490918E4
:10A560002020085670470000BC270020F7B50027C0
:10A5700082B00E463D4607E00298805C0A2801D171
:10A58000501EC5B2521ED2B2B242F5D22C4621E0C4
:10A59000281BFDF72FFF02460B460020104901F053
:10A5A00083FE009002980191005D3038FDF722FF94
:10A5B000019B009AFDF7B6FE009001913846FDF729
:10A5C00019FF019B009AFDF7FBFDFDF727FF641EB5
:10A5D0000746E4B2B442DBD2384605B0F0BD000015
:10A5E00000002440002806D00449814204D80449D0
:10A5F000884201D20120704700207047A02100202E
:10A60000B0210020044A0168914201D0083101E0E4
:10A610000149383901607047242A00207FB50C4673
:10A62000002809D120780009052807D0204D0628E8
:10A6300022D0072833D00B2004B070BDA088694613
:10A64000088120690090684602F08AFD002801D048
:10A6500005200BE001980123008820810198154A0C
:10A660008088A0811448019900F0F6FC2178090740
:10A67000090F70312170DFE72146104B6A460C311B
:10A68000002000F055FB00280BD020780007000FB9
:10A6900070302070094800210160416081602846C7
:10A6A000CAE70123034A0448019900F0D5FCC3E737
:10A6B00034120000F8DB0100A02100201429002042
:10A6C00070B50F4D6A782C78521E1206120E6A7001
:10A6D00004D10C4AFD26137833401370621CD2B2A9
:10A6E0002A70082A01D100222A70FEF76BFF14207D
:10A6F000444360191421001DFDF757FD70BD000093
:10A700005C2A002080210020F8B50C4D069E6C7854
:10A71000072C11D02F783C196407640F14277C4351
:10A72000641960602172E3602261A6826878401C2F
:10A73000687002F0CBFAF8BD0420F8BD5C2A002056
:10A74000044A0168914201D0143101E001498C3979
:10A7500001607047D429002010B5154800781421F5
:10A7600048431349134CA039411808780007000FDB
:10A770000300FEF730FA071B050A0A0E0E121B0033
:10A780000021084600F0F0FD0AE0002002F0F0FD94
:10A7900006E00020FFF742FF02E0002000F0E4FCAA
:10A7A000002801D0A04200D1002010BD0F2010BD14
:10A7B000E82900203412000010B5042000F058FBF6
:10A7C000002801D0002010BD042000F05BFBFFF743
:10A7D000C3FF10BDF8B52348C16800293ED00E68FC
:10A7E00021494C680769C078E11B0D022D0AED1C58
:10A7F000002814D101201D4A000450601B4A403A31
:10A8000050601B49400008601A4908601A4901203D
:10A8100008602F20FDF76EFC12490120C870B54278
:10A8200000D23546E81900020F4B000A4033186089
:10A830000D4A5168001B091B0902090A0002000A9F
:10A84000C91C814209D9506818602F20FDF752FCBD
:10A8500001200749400480390860F8BD02F0FAFA87
:10A86000F8BD0000502100200015014040130140B8
:10A8700080E200E000E100E000100140F8B506468B
:10A88000108814468446801D0D46984201D90C203C
:10A89000F8BD32880720062AFAD31927FF01184B82
:10A8A000BA4201D99A42F3D171880629F0D3B9424C
:10A8B00001D99942ECD19A4203D0994201D08A42FF
:10A8C000E6D805216046295420881221401C80B218
:10A8D000208029542088401C80B220804119308873
:10A8E00002F074FF2188401880B2208041197088DE
:10A8F00002F06CFF2188401820800020F8BD000085
:10A90000FFFF000010B500221146FEF70DFE10BD3E
:10A91000F8B5164800F0B4FD144D00260C3D144C5B
:10A92000002807D0616900291CD001206A461070F8
:10A93000684616E02878002805D06169002911D002
:10A94000684606700DE0687800280DD0A1680948B7
:10A9500000220068FEF7A0FE002803D0A1690029AC
:10A9600000D088472E70F8BD6168F0E7082100200C
:10A970008027002098DB0100F8B500260124154D42
:10A9800023E06968F0004718387821462A69814039
:10A99000114218D08A432A6101F04CF93A782146D5
:10A9A000EB68914019400346934099420BD1797866
:10A9B000012901D0012100E000217B684140002BEA
:10A9C00001D010469847761CF6B228788642D8D334
:10A9D000F8BD00003C21002010B50E4900234A7844
:10A9E0008C78A24212D0521CD2B24A70022A00D1F4
:10A9F0004B704A78074B920018339A5802600869E6
:10AA000010180002000A0861012010BD0360002038
:10AA100010BD00005021002010B501782F4C5629A0
:10AA200020D04C2924D04E2928D050292CD053296D
:10AA300030D0572934D0412938D04D293CD0422933
:10AA400040D04F2944D023290BD0242909D10020FC
:10AA50002246283A8100401C5358C0B2635009284E
:10AA6000F8D310BD04220121FFF780FD206010BD46
:10AA700004220121FFF77AFD606010BD042201214C
:10AA8000FFF774FDA06010BD04220121FFF76EFDE9
:10AA9000E06010BD04220121FFF768FD206110BDB8
:10AAA00004220121FFF762FD606110BD0422012133
:10AAB000FFF75CFDA06110BD04220121FFF756FDE8
:10AAC000E06110BD04220121FFF750FD206210BD9E
:10AAD00004220121FFF74AFD606210BD44200020DE
:10AAE00008B5002807D00089694601F0DFFA002880
:10AAF00003D00B2008BD0E2008BD68460088010168
:10AB0000034809184889401E4881002008BD0000FC
:10AB1000302A002070471FB5002A07D0002B05D02F
:10AB200001A9684600F004F904B010BD0E20FBE74F
:10AB30001FB52C488468022000F09AF9002806D03E
:10AB40000022234601211046FEF726FD28E00120C1
:10AB500000F08EF9002802D0082004B010BD00F0EB
:10AB600037FA0028F9D1A4211F48FDF71EFB1E4823
:10AB70004421A430FDF719FB1C490020886003AA7A
:10AB8000694601A801F0C6FA694688880978084331
:10AB900008D0012000F076F96846007B002803D039
:10ABA0000020DAE70420D8E768460078002812D0B1
:10ABB000002302AA1946012002F0DCF8002801D087
:10ABC0001120CAE70298017809090901491C01709E
:10ABD000FFF7F2FDC1E7022000F054F9012000F078
:10ABE0003FF9ADE7F4DB0100482900207421002083
:10ABF00038B50D46040009D0002D07D020896946DC
:10AC000001F054FA002803D00B2038BD0E2038BDC7
:10AC1000204602F0A5FA002814D1606800F096FBE7
:10AC200000280FD0684600880101074809184889A4
:10AC3000401C4881626807CA07C560680C302860FC
:10AC4000002038BD052038BD302A0020F7B58EB071
:10AC50008DB294B201260D4F0DE0BE7002A906A878
:10AC6000FFF7C6FF05980E990068086006A8FFF771
:10AC700037FF002808D10AAB06AA21462846FFF76D
:10AC80004AFF0028E9D0002011B0F0BD00200020CC
:10AC900010B5064A91780A2906D08B00044C491C4D
:10ACA000E0509170002010BD042010BD74210020E0
:10ACB00020290020FEB51C4615460E460746FEF725
:10ACC000D9FD012100200191009023462A463146FA
:10ACD000384602F067FE0446FEF7C4FD2046FEBD7E
:10ACE000FEB51C4615460E460746FEF7C3FD00207E
:10ACF0000090019023462A463146384602F052FE23
:10AD00000446FEF7AFFD2046FEBD826883881A40E8
:10AD100003689A5C0A708168491C81607047C26848
:10AD200083881A4003689954C168491CC160704700
:10AD3000FFB583B01C461646022000F099F80028A3
:10AD400017D0424F60680025B84215D140492068AD
:10AD50008A68824210D8C96881420DD300F0C2FBD4
:10AD6000002809D02068418889000C3140182060F3
:10AD700066E0082007B0F0BD676025812560684661
:10AD80008580208901A901F091F968468088314FBA
:10AD90000001C119097B0907090F02294DD121685A
:10ADA000002901D020683BE03858103037E000908F
:10ADB00000F0CCFA00282CD003990020002906D0FE
:10ADC00000990A88039909888A4200D101200499D0
:10ADD00000290AD000998A88049909888A4218D1E2
:10ADE0000399401E014202D013E0002811D06846AA
:10ADF00080880001C01980883081009880683060A8
:10AE0000206870601448B0811448808870810020E8
:10AE1000B0E700982168408880000C300818206056
:10AE20006946898801220901795892028918884265
:10AE300002D20168491CBAD125602089401C2081BA
:10AE4000208902289BD30520656093E71AE1AB15A2
:10AE5000A0210020302A00201EF1000074210020D3
:10AE600002494A7882434A707047000074210020EA
:10AE700003494978014201D0012070470020704702
:10AE80007421002002494A7802434A70704700004A
:10AE90007421002010B50446C0B2FEF7CFFC204656
:10AEA00010BD0000F8B5314D0846297814232E4610
:10AEB0005943A03E8C1921780907090F0B00FDF7B3
:10AEC0008AFE07240509090D0D112400114600F022
:10AED0004BFA09E0214602F04BFA05E02146FFF764
:10AEE0009DFB01E000F040F900283BD02289694633
:10AEF0000A80A2894A801E49884208D120782269A6
:10AF00000107090F0020009B0FE00320EEE717491F
:10AF1000627844314B78934202D34B789A1A4A7044
:10AF2000217822690907090F009BFEF735FB287875
:10AF3000142148438019FDF738F96878002807D0B4
:10AF40002878401C4007400F28706878401E6870C1
:10AF50006878002803D00748C078002803D0042070
:10AF6000FFF77EFFF8BDFFF7F7FBF8BDE8290020EB
:10AF70003412000074210020F8B506461348154627
:10AF800000780C46C0070AD03046FFF72BFB00289C
:10AF900007D0A005800DE9B208430CD103E00820DA
:10AFA000F8BD0F20F8BDB068A04204D8A800F16831
:10AFB0000019884201D91020F8BD00232246022141
:10AFC00030460095FFF7A0FBF8BD0000802100206F
:10AFD000F8B5002000901B48194D4469601C03D14E
:10AFE000012000074069840217481849401A0609E1
:10AFF0003746A4211648FDF7D8F8144900200BE085
:10B0000002015218D368002B04D15279AA4201D20E
:10B0100015460090401C80B28742F1D80098084D38
:10B0200000014018C46002799202A41A8460761E5E
:10B03000E4D1084801220178114301700020F8BDD5
:10B04000FFFF000000100010B0210020A021002010
:10B050005C2A002080210020F8B5064612481D46D3
:10B06000007817460C46C00707D03046FFF7BAFAFB
:10B07000002804D0A00704D00BE00820F8BD0F2062
:10B08000F8BDB068A04204D8A800F1680019884251
:10B0900001D91020F8BD3B462246012130460095DB
:10B0A000FFF732FBF8BD00008021002010B51A4ADE
:10B0B00011788B0729D5194B142419786143C918C5
:10B0C000022808D003281AD15088401C80B2508032
:10B0D000032815D811E000205080087A091D0128A6
:10B0E00001D0022803D1488AFF3001304882488AC3
:10B0F0000A8A904201D3002004E001F0E7FD10BD70
:10B100000D20091DFFF7DCFAF7E74807F7D5FB200C
:10B1100001401170F1E70000802100205C2A00202E
:10B1200070B50F4D04206C68287268882E460001A7
:10B13000203E31588019C088224680000918608856
:10B14000C01C83B20748FFF787FF68880001811998
:10B15000C88862888018C01CC880002070BD0000AC
:10B16000502A0020A021002010B5002821D11C4821
:10B170000024017A0B00FDF72EFD083005301F1F5B
:10B1800022252E30174A9188491C9180144A0021AB
:10B19000203A0B019B181B7B1B071B0F022B09D0AE
:10B1A00000234418491C89B263720229F1D300F0CC
:10B1B00041F810BD0123F4E700F06CF810BD00F079
:10B1C00013F810BD07210172408800F083FF0028AA
:10B1D000F7D1204610BD4460E9E7032010BD000010
:10B1E000502A002074210020F8B51049062008726A
:10B1F00048880C460001203C0219968802201073F2
:10B200000D882B01181987889780078917814D8031
:10B210000321017386800421C18000210181FF2266
:10B22000E15801320248FFF7A7FEF8BD502A00207E
:10B23000A021002070B5134C0021204603460A4689
:10B24000203B4618757A002D05D00D01ED186D894B
:10B250007272002D09D0491C89B20229F1D3012153
:10B26000017202804260084870BD21800321017292
:10B270000088064A00011958012305480C31FFF7E0
:10B28000EBFE70BD502A002034120000F4DB0100F8
:10B29000A0210020F8B5184D2A46686829882E1D7F
:10B2A000203A002804D043889B001C180C3402E08C
:10B2B0000801145810340F010F482038C1590120DB
:10B2C00080020818A04210D92068401C0DD02046EA
:10B2D00000F03CF8002803D03460FFF721FFF8BDF0
:10B2E0006088800004190C34E6E70520287268881D
:10B2F00000F000FFF8BD0000502A0020F8B5074616
:10B30000104E0125BD403068FEF704FA00280DD12B
:10B310000D4C2069284207D1384600F08BFC0028EC
:10B32000E06804D0284303E0A8432061F8BDA843A7
:10B33000E0602069002228432061A1683068FEF7A0
:10B34000ABF9F8BDECDB01003C21002001880029AD
:10B3500005D080880349884201D001207047002031
:10B3600070470000FFFF0000F8B5002600283ED11E
:10B370002048002904D00268891A8901090C491C57
:10B380008CB21D4F1D4D022C26D10220FFF77AFDF5
:10B390000120FFF765FD29E01648210108180090FB
:10B3A000007B0007000F012814D12878012600280F
:10B3B000204605D000F09EFE00990220087309E0A7
:10B3C00000F088FE009903200873012028700948C6
:10B3D00020304480641CA4B2022C02D2002EDBD0A8
:10B3E00006E0002E04D12878002801D03846F8BDA8
:10B3F0000020F8BD302A0020341200007421002003
:10B40000F8B51E4C2078002837D02069002807D0D6
:10B410000026E068002805D00025002E04D013E0A7
:10B420000126F6E70125F8E7684651DF052806D032
:10B43000002806D000221146FEF776F804E0012627
:10B4400002E0216900988847002D12D16088694682
:10B450000880A06861DF052806D0002806D00022F9
:10B460001146FEF761F804E0012502E0E168A068FA
:10B470008847002ED8D0002DCFD0F8BD84210020E1
:10B48000418805480288914204D34088814201D80E
:10B490000120704700207047002100201048018CD7
:10B4A000C9B2012917D1818C090714D1018D090670
:10B4B0000A0F03D1828D1206120F0ED0090F012937
:10B4C00003D1828D1206120F07D0032903D1808D7C
:10B4D0000006000F01D000207047012070470000D7
:10B4E000C00F00F0800701D0002070470120704796
:10B4F00030B51588EC1C9C4201D90C2030BD0224CB
:10B500004C5513881C255B1C9BB21380CD541388AB
:10B510005B1C9BB21380012807D0022807D00328A8
:10B5200007D0042807D0072030BD002004E0012008
:10B5300002E0CC5401E00320C8541088401C108065
:10B54000002030BD10B50448017AC90702D0007848
:10B55000FEF7B2FE10BD0000BC200020F8B52C495B
:10B56000C8680A690C780F79896886469446009104
:10B570003EE00099E20055182A7836E0182353433C
:10B580006968521CC918AB78D2B2934200D100222C
:10B590000B78022B02D0032B27D123E04E68034601
:10B5A000014603E0B14204D00B46C96900291CD012
:10B5B000F8E7002919D08B4208D1C069002805D1CD
:10B5C000144F0126BE600026B44601270E68C969E3
:10B5D000D961002909D00B689B190B6005E0017443
:10B5E000C06900E000210028F9D169789142C5D1F5
:10B5F0002146641EE4B20029BBD1054962460A61B6
:10B60000C8600F71704501D00120F8BD0020F8BD61
:10B610005021002000100140F8B5044631480026B2
:10B62000C168009107784EE02E48F90080680D1837
:10B6300043E0002C02D02046E4691FE0287818215E
:10B6400041436A68401CC0B251182870AA789042E1
:10B6500000D12E700A784868012A30D1027C002A75
:10B660002DD18A684260CA6882600A69C2604969ED
:10B6700081611C490979002900D046601949436855
:10B680000A699C46991A0902174B090A994202D283
:10B690008268891807E06146511A09028268090A1E
:10B6A0008A4202D9511A016000E006604660012119
:10B6B00086600174C66101F03BFF002CB9D1287887
:10B6C00069788842BAD138467F1EFFB20028ABD1D4
:10B6D0000448C1680098814201D00120F8BD0020D3
:10B6E000F8BD000050210020FFFF7F008CB072A247
:10B6F00007CA0023049203910290724A052118465A
:10B70000FDF782FF002803D000221146FDF70CFF51
:10B710006D4A09AB07CA07C3FF2101316B48059089
:10B7200040180691089107900323694A05A909A8C2
:10B73000FEF734F8002803D000221146FDF7F4FE8E
:10B74000644A65490320FEF767FD002803D0002204
:10B750001146FDF7E9FE01A90020FEF737FC00289D
:10B7600003D000221146FDF7DFFE6846007902286B
:10B770005BD0002168460170FEF7F4FB0120014612
:10B780001031684601760B2254A106A87CDF002800
:10B7900003D000221146FDF7C7FE002400941021BB
:10B7A0006846019401803C214180FF2184809131D1
:10B7B000C1807ADF002803D000221146FDF7B4FED5
:10B7C0004948009069464948FEF742FB002803D0EB
:10B7D00000221146FDF7A8FEFDF71AFE1C2105A860
:10B7E000FCF7E3FC0520C00306900F20000407903F
:10B7F0000594032108A801706846448408A80471D0
:10B800003B480A903B480B9005A8FEF76BFA0028CE
:10B8100003D000221146FDF787FE3748FFF738FABC
:10B820007D26360100280DD101E00121A2E7FFF7B6
:10B830007FF9050039D031A0FDF7A6F9304600F0B8
:10B8400019F9284600221146FDF76EFE01F0CEFAE6
:10B8500002A934A0FDF798F90320FEF753F9002858
:10B8600003D000221146FDF75FFE2F4D68780028B7
:10B8700013D00020FEF746F9002803D0002211461D
:10B88000FDF752FE74DF304600F0F4F801F088FB5B
:10B8900026A0FDF779F92C706C7048DF0028E5D000
:10B8A00000221146FDF740FEE0E727A0FDF76CF906
:10B8B000304600F0DFF8C9E753746172742E2E2E03
:10B8C0000A0000000C24002050DB01000C220020A4
:10B8D000C1D6010079A10100CD0C00004E6F726449
:10B8E00069635F554152540075BF0100D4250020A3
:10B8F0005DC0010005A9010015AB01003E3E2066B8
:10B90000647320696E7469616C697A6174696F6EC1
:10B91000206E6F74207375636365737366756C0A4C
:10B920000000000025730A000020002044617461BB
:10B9300020736176656420737563636573736675E0
:10B940006C6C7921210000003E3E20666473206902
:10B950006E7469616C697A6174696F6E2073756366
:10B960006365737366756C210A00000070B5144638
:10B9700082880E4605462088111D4118921C994266
:10B9800001D8FE2A01D90C2070BD521C32542088E7
:10B99000FF21401C80B2208031542088401C80B29E
:10B9A00020808119288801F011FF2188401880B279
:10B9B0002080AA88002A09D0A968002908D0801907
:10B9C000FCF7DAFB2088A98840182080002070BD91
:10B9D000072070BDF8B50F460178144605460129C9
:10B9E00002D16878002806D02088821C9A422DD87F
:10B9F000012902D006E00720F8BD69784118891CAA
:10BA0000994223D8181A801E86B26846068021887B
:10BA1000B81C081869467DDF0028EDD12878022877
:10BA200005D169460988B14201D809210AE00821F7
:10BA3000012805D16878B04202D86A46108001E03A
:10BA40006846068068460088FE2801D90C20F8BDAB
:10BA50002288401CB8542088401C80B22080395471
:10BA600020886946401C20800988401820800020DA
:10BA7000F8BD000031B5054C04E0401E00902046A2
:10BA8000FCF728FB00980028F7D138BDE703000039
:10BA90008207D30EFF229A408907090E10B59940FC
:10BAA00000280BDA03071B0F083B9C080C4BA40073
:10BAB000E318DC6994430C43DC6107E08408094B1C
:10BAC000A400E418236893430B432360C106C90E06
:10BAD00001208840044908600449086010BD000046
:10BAE00000ED00E000E400E080E200E000E100E0C2
:10BAF000F3B581B00F46019800F0BEFB0124002889
:10BB00001E4E019817D0FEF729FD80192030007FC6
:10BB10008009032802D0012806D007E018480069F0
:10BB200001998C40204201D1022100E003210198BB
:10BB300000F0F8F9FEBD00F0ABFB0028FAD0019848
:10BB4000FEF70CFD05468100C81D0E4AF930891824
:10BB50000A6980B222430A610B4940180021016042
:10BB6000002FE7D00198FEF7F9FC8000305800283C
:10BB7000E0D00648AC404460FEBD0000BC27002079
:10BB80000005005000650040006000400063004078
:10BB9000FEB5044623480E460019202141560027D1
:10BBA000C8171346401C01D0082738E0F278194620
:10BBB0002046FEF7AFFC0546401C2FD0B078002889
:10BBC00007D01948A10009180868022290430860AC
:10BBD00007E000217378204600910A46019100F0A9
:10BBE00069F9F078002810D01048AA0010183178B0
:10BBF00002690F4B1A400261E206D20C8907890BD9
:10BC00000A4301690A43026109E006483278401993
:10BC10002030017F92011143017700E0042738466C
:10BC2000FEBD0000BC27002000070050006500405A
:10BC3000FFE0FCFF03490969C140C807C00F00D0FD
:10BC4000012070470005005070B5124D287900287A
:10BC500001D0082070BD0F4900204039421E0B184A
:10BC60002033401CC0B21A702028F8D3002420468C
:10BC7000FEF742FC641CE4B2082CF8D30321062032
:10BC8000FFF706FF01200449C00748600120287122
:10BC9000002070BDFC2700200063004002480079AE
:10BCA000002800D001207047FC270020F3B504468F
:10BCB000244881B0807D002801D00820FEBD002CE2
:10BCC00000D1214C206800F022F920780127394664
:10BCD0001E4E8140B1600021606800F00FF91C4DDC
:10BCE000A0696862607D217D0843E86603CCE86056
:10BCF0006961207B083C01280ED10021A06800F07A
:10BD0000FDF8E06800F003F9207B39468140B1601E
:10BD1000E168A068A96028610A4E029870602169F4
:10BD20003160002806D00C4A217F0A48506002206A
:10BD3000FFF7AEFE042028600020F074B074B775E1
:10BD40007075FEBD04280020CCDB0100000500500A
:10BD5000002500408000020000230040F8B5294D76
:10BD6000EA7C002A01D01120F8BDE974E8600020C7
:10BD70002875687D002801D101F004F96868224C1B
:10BD8000002805D081202149800048600020F8BDAE
:10BD9000FF212531204600F0DFF80546FF2109315B
:10BDA000204600F0D9F80746FF214531204600F033
:10BDB000D3F80646394631432943E9D02846304373
:10BDC00006D101F069F80F48C17C007D8142DFD8BF
:10BDD000FF21453100206050FF2125316050094985
:10BDE000002DC87401D00320F8BD002E01D00F2013
:10BDF000F8BD497D0120002901D02060C6E76060C0
:10BE0000C4E7000004280020002000400023004078
:10BE100010B5044C607D002803D101F0B3F8012077
:10BE2000607510BD04280020F8B5204C0026A27CC7
:10BE3000002A01D01120F8BDA174A060002020824A
:10BE40001B4DFF271D37E8510120A86001F0D2FBF0
:10BE50006168002911D024E0FF27013729461448E2
:10BE600000F07AF8002802D1208AB842F6D1208A60
:10BE7000B84203D001F0BEFB00E03D46A07C218A21
:10BE80008842E9D8218AC81FF9380CD0084F2946C2
:10BE9000384600F061F80028F9D00120F860002051
:10BEA000A0743046F8BD0F26F9E7000004280020F2
:10BEB0000020004030B552000A439900039C0A4319
:10BEC0002102049D0A4329040A43024980004018C4
:10BED000026030BD0007005030B552000A4399009F
:10BEE000039C0A432102049D0A4329040A43024990
:10BEF00080004018026030BD000700501CB50022D1
:10BF00000B46009211460192FFF7E6FF1CBD1CB5DF
:10BF1000002100910B46012201911146FFF7DCFF41
:10BF20001CBD0000820006481018026803231B0491
:10BF30009A430260026809040A43026070470000E5
:10BF400000070050034940180068012800D0002075
:10BF500070470000006000404058002800D00120D9
:10BF600070470322120280184068084000D0012068
:10BF70007047000010B50020094B02E00C5C1C5417
:10BF8000401C9042FAD30A20FDF758FC0028FAD151
:10BF90000348FEF741FD024901201439087010BD25
:10BFA0001420002010B500280BD0032808D102204F
:10BFB000FEF724F9002803D000221146FDF7B4FA59
:10BFC00010BD01F064F910BD70B501881E4C054626
:10BFD000102912D011291CD02046808813292DD079
:10BFE000522909D100231A461946A9DF002803D097
:10BFF00000221146FDF798FA70BD0720FEF7FEF803
:10C00000002803D000221146FDF78EFAA888A080F0
:10C0100070BD0020FEF7F2F8002803D00022114680
:10C02000FDF782FA0020C043A08008A0FCF7ACFD19
:10C0300020780028ECD00120607070BD00231A46E3
:10C0400085217FDFD2E70000002000204469736370
:10C050006F6E6E65637465640000000010B5007853
:10C06000002809D105483B21808876DF002803D0CD
:10C0700000221146FDF758FA10BD000000200020F4
:10C0800010B5094B00221401E418A488844204D19D
:10C090001001C0180860002010BD521C92B2022A84
:10C0A000F1D3052010BD0000302A002010B5084B48
:10C0B00000221401E418A488844202D10A800020DE
:10C0C00010BD521C92B2022AF3D3052010BD00000D
:10C0D000302A002010B50449000109580423034AFE
:10C0E0000348FEF7B9FF10BD302A002000DC010034
:10C0F000A021002010B50449000109580423034A77
:10C100000348FEF7A9FF10BD302A002010DC010013
:10C11000A0210020F7B582B0029900200880039981
:10C120000246087004990870454946488B680978AA
:10C130009C4601914449930289681401C918015130
:10C1400004232118CB808A8000234B810B81055961
:10C150002E6800966F68AE68ED68AE463B4DAF4204
:10C160001CD13B4DAE4219D13A4EB6450AD13A4E9A
:10C17000009DB54201D1032310E0384EB5420DD1E8
:10C1800002230BE0334EB61EB64507D1324E009D5A
:10C19000B54202D0314EB54200D104230B73002BBF
:10C1A00006D0022B13D0032B31D0042B3DD134E029
:10C1B000045900239D0065596D1C36D15B1C9BB250
:10C1C000FF2BF7D901230B7303990B702DE0035953
:10C1D0000425CD802E02891D10330BE09D68654536
:10C1E00000D9AC465D88AF00FB180F887D19ED1CA7
:10C1F0000D800C330559AD199D4202D91D686D1C87
:10C20000ECD10299029B0988491C19800DE00D4967
:10C2100020314A800121019107E00A49032320319E
:10C220000A800B72049B01211970521C92B2022ADF
:10C2300080D30348614681600199017005B0F0BD6B
:10C2400074210020302A0020A0210020DDCCBBAAD0
:10C25000DD01BBAADA00EB1CA5A5A5A5A4A4A4A496
:10C260000021425C002A01D001207047491C0629A8
:10C27000F7D30020704700000449081820214156D8
:10C28000042901DB0120704700207047BC270020F3
:10C290000449081820214156042901D20120704781
:10C2A00000207047BC270020F0B51FB496B084462C
:10C2B0000C460246199D18980390490068006300D7
:10C2C000490840080193002A01D0012600E0002619
:10C2D0009E19FE4BF6185B109E422BD36E00039FF7
:10C2E0000296002F00D00127F719F84EF84BBE191F
:10C2F0009E421FD3039E0346F64F334309D03B466D
:10C300009C4201D1002A04D0019B002A05D00126BD
:10C3100004E0002039461BB0F0BD00269E19EE4B0C
:10C320009E4207D8039F029E002F00D00127F619D6
:10C330009E4207D92B4660462146189AFCF7CEFC50
:10C340001BB0F0BD0023002C29DAE44EB04226DAFF
:10C35000E34EB04201DB022321E0DE4EB0421EDBA1
:10C36000E04E070DBE19142E09DD3427BF1B039EB6
:10C37000FE400196BE40039FBE420BD00FE0039FDC
:10C38000002F0CD11427BF1B0646FE400196BE406D
:10C39000864204D1019BDE07F60F02239B1B0E464B
:10C3A000164318D1002D16DA002C03D0022B01D031
:10C3B000012B06D00220FCF7C1FCFCF785FC1BB06A
:10C3C000F0BD0220FCF7BAFCFCF77EFC0122D2078C
:10C3D00051401BB0F0BD039E002E61D1BF4EB04254
:10C3E00020D1C148844201D1002A08D0B9488142F5
:10C3F00009DB002D10DB189829461BB0F0BD00208A
:10C40000B4491BB0F0BD002D06DA01222946D2073F
:10C41000189851401BB0F0BDB44979440868496888
:10C420001BB0F0BDAB4FB84225D1002D1FDA00295B
:10C4300004D0B14212D1002A09D018E0002A72D1EA
:10C44000A649E20F0020D20711431BB0F0BD002027
:10C45000E20F0146D20711431BB0F0BDB14206DA2C
:10C46000234600203946FCF7C1F81BB0F0BD10464A
:10C4700021461BB0F0BDB14212DA0126B607B54223
:10C4800003D1234610461946FEE3994EB54207D123
:10C49000261E05DB1046314600F046FF1BB0F0BDFE
:10C4A00067007F081646002A40D100290AD08B4A2F
:10C4B000914229D1002C0EDD002D1CDB00201146FD
:10C4C0001BB0F0BD022B16D0002C14D0012B12D1C2
:10C4D000002C14DB0FE0002C28DA002D09DB012BE7
:10C4E00003D000207D491BB0F0BD002081491BB066
:10C4F000F0BD012B03D0002001461BB0F0BD002091
:10C500000121C9071BB0F0BD724A91420ED1002C27
:10C5100001DA002B17D0022B06D00020C043FBF716
:10C5200069FF1BB0F0BD90E20120F8E7E217521C52
:10C5300094461A4307D000220892664C62465B1E5E
:10C540001A4307D009E00120FCF7F8FBFCF7CAFB0F
:10C550001BB0F0BD0022644C0892674A90427DDD1A
:10C56000664B674A98421FDD914202DC002D05DBD5
:10C570004DE05848814217DB002D48DD0220FCF7D2
:10C58000DDFBFCF7B7FB05460E460022534B214668
:10C590000898FBF7C7FE084671004908C00FC0079E
:10C5A000014328461BB0F0BD914215DA002D2EDA6A
:10C5B0000220FCF7C3FBFCF79DFB05460E4600225C
:10C5C000464B21460898FBF7ADFE72005208C80F93
:10C5D000C0070243114617E03E4B994223DD002D70
:10C5E00015DD0220FCF7AAFBFCF784FB05460E468E
:10C5F00000223A4B21460898FBF794FE084671004A
:10C600004908C00FC007014328461BB0F0BD0220F7
:10C61000FCF794FBFCF778FB49004908E20FD207CE
:10C6200011431BB0F0BD002230463946FBF76CFECB
:10C63000012205460E46D243FCF750F8314A324BF0
:10C64000FBF768FE2A463346FBF76CFE0022284BB8
:10C65000FBF760FE07462A46334600E064E003919C
:10C6600010461946FBF75EFE3A46039BFBF75AFE5F
:10C670000746032209915207244B28463146FBF70F
:10C6800051FE07910C90224A204B38460999FBF73E
:10C6900049FE074601911F4A1F4B28463146FBF7CA
:10C6A00041FE3A46019BFBF72FFE07460B4602462A
:10C6B000099107990C98FBF783FD00250E46284643
:10C6C000079B0C9AFBF720FE3A4627E0FFFF1F006E
:10C6D000FFFF0F000000F03F0000E0FF0000F07FD0
:10C6E0000000404301FCFFFF0000F0BF8A1800007B
:10C6F0000000E03F0000F0FF0000E0410000F043D8
:10C70000FFFFEF3F555555555555D53F4715F73F59
:10C71000FE822B6544DF5DF80BAE543E099BFBF7B0
:10C72000F9FD02460B4652E1012500202D05A942E4
:10C7300007DA352230463946FBF7D0FF064634206B
:10C74000C0430A151218FE48101803900803FD494B
:10C75000000B01430F46FC49884201DC002003E046
:10C76000FA49884202DA0120119005E00020119078
:10C770000398401C7F1B039011980597C200F44852
:10C780000F927844801843680268394630460D930A
:10C790000292FBF7B9FD07910C9030460D9B029A6F
:10C7A0000599FBF70DFD02460B460020E549FBF716
:10C7B0001DFF09910490079B0C9AFBF7B3FD1290A3
:10C7C00000201090E3480D46784400680E90012147
:10C7D00078104907084311990D9B890440180121DD
:10C7E000C90447183946029A0E98FBF78DFD324668
:10C7F000059BFBF78FFD02460B4629461098FBF779
:10C8000091FD064602913B4629460E9A1098FBF789
:10C8100089FD079B0C9AFBF77DFD3246029BFBF7D7
:10C8200073FD099B049AFBF77DFD0591129A0A900E
:10C830002B4610461946FBF775FD06460246C648CC
:10C840000F460B4606217844FCF7E8F932463B4692
:10C850000091049010461946FBF764FD009B049A72
:10C86000FBF760FD06460F462B461946129A1098B4
:10C87000FBF7A6FC059B0A9AFBF754FD32463B46A4
:10C88000FBF79EFC109A079104902B461046194620
:10C89000FBF748FDB14E0022334609910290FBF7A9
:10C8A0008FFC079B049AFBF78BFC0020074602468F
:10C8B00033460091FBF728FD099B029AFBF724FD04
:10C8C000079B049AFBF726FD06460D913A4629463A
:10C8D000009B1098FBF726FD07910C902B463046E5
:10C8E000129A0D99FBF71EFD05460E463A46009B2F
:10C8F00005990A98FBF716FD33462A46FBF760FCBC
:10C9000002460B460746099107990C98FBF758FC1D
:10C9100000250E462846079B0C9AFBF7F5FC3A4685
:10C92000099BFBF7F7FC07460722099152078C4B3E
:10C9300031462846FBF7F6FC07910090894A884B60
:10C9400038460999FBF7EEFC07460191864A874B6A
:10C9500031462846FBF7E6FC3A46019BFBF730FCE4
:10C96000834B7B440F9A9B181A685B68FBF728FC83
:10C97000029009910398FBF73DFD05910490099BF6
:10C98000029A07990098FBF71BFC7A4B7B440F9A9D
:10C990009B181A685B6817460393FBF711FC059B0D
:10C9A000049AFBF70DFC0E462846059B049AFBF7FC
:10C9B000ABFC3A46039BFBF7A7FC079B009AFBF7EF
:10C9C000A3FC099B029AFBF7A5FC02460B461999AA
:10C9D00000200C900F461898FBF7A4FC02910490DD
:10C9E0003B460C9A19991898FBF78EFC2A46334659
:10C9F000FBF798FC029B049AFBF7E2FB09910E906F
:10CA00002A46334639460C98FBF78CFC06460F46FF
:10CA1000099B0E9AFBF7D4FB574A0D46914220DB47
:10CA20005242AA18024310D132463B46FBF76CFC37
:10CA300004900391514A524B09990E98FBF7C0FBA1
:10CA4000039B049AFBF760FE1ED20220FCF776F9E6
:10CA5000FCF750F949004908E20FD20711431BB017
:10CA6000F0BD6A00474B52089A420DD3464AAA18B5
:10CA7000024300D0CBE532463B46FBF745FC099B21
:10CA80000E9AFBF741FEF5D96800002340082C49B7
:10CA90000393020D3D4B5218984223DD01200005FF
:10CAA000521CD04042195000400D4018384979447A
:10CAB000096813468C463749C1408B431203012154
:10CAC000120B090551181422101AC1400391002DB0
:10CAD00001DA48420390624630463946FBF714FCBF
:10CAE00006460F4632463B4609990E98FBF768FB0F
:10CAF00000252A46284B28460591FBF713FC079191
:10CB00000C90264A264B28460599FBF70BFC009112
:10CB1000029032463B4628460599FBF7F5FB099BF8
:10CB20000E9AFBF7F7FB1F4A1F4BFBF7FBFB009B23
:10CB3000029AFBF745FB07460B460246099135E092
:10CB400001FCFFFF0000F03F8E9803007AB60B0057
:10CB50009A140000DC1400000614000000000840D5
:10CB600009C7EE3FFD033ADCF5015B14E02F3EBE42
:10CB7000DA120000A012000000009040FE822B6537
:10CB80004715973C00CC904000346F3F0000E03FD9
:10CB9000F6110000FFFF0F00432EE63F396CA80C92
:10CBA000615C20BEEF39FAFE422EE63F07990C98F1
:10CBB000FBF706FB05460E46079B0C9AFBF7A4FB0A
:10CBC0003A46099BFBF7A6FB09912A4633460E908D
:10CBD00010461946FBF7A6FB074602462F480B46B0
:10CBE000059105217844FCF719F83A46059BFBF7B7
:10CBF00099FB2A463346FBF78DFB074601912846F1
:10CC00003146099B0E9AFBF78DFB099B0E9AFBF7A9
:10CC1000D7FA012304910C9000229B073846019912
:10CC2000FBF772FB05910E903A4628463146019B70
:10CC3000FBF778FB059B0E9AFBF7D8FC049B0C9A3C
:10CC4000FBF762FB2A463346FBF75EFB0022144BE0
:10CC5000FBF760FB064603980D46000541190915D0
:10CC6000002912DC30462946039AFBF737FDFBF713
:10CC7000BFFF042801D1FCF747F830462946039A44
:10CC8000FBF72CFD064601E004E029180B4632466E
:10CC900021460898FBF746FB1BB0F0BD981000003A
:10CCA0000000F03F07490979490701D4082070477F
:10CCB000002804D0044949780160002070470E2004
:10CCC00070470000182100201C28002070B5124C6D
:10CCD00000252078810715D4104E7178002911D0D5
:10CCE00002210843207000F01BF8054611280BD0E4
:10CCF000002D07D030781421484381192846091D9A
:10CD0000FCF760FC284670BD207804210843FD2113
:10CD1000084020700025F5E7802100205C2A0020D3
:10CD200013481422017851430818017A001D002984
:10CD30001BD0012903D0022910D00F207047018A8F
:10CD4000438AC91AFF2901DDFF2101318AB28168B6
:10CD50009B00C068C918C01829DF7047C168408AA5
:10CD600080000818800A28DF704700207047000004
:10CD70005C2A0020F0B5002A03D0002B03D1002943
:10CD800001D00E20F0BD00280DD0174D6C7808267C
:10CD9000371ABC4205DC2C4644346778761AB74211
:10CDA00003DD1120F0BD0B20F0BD6E782F78BE1989
:10CDB0007607760F14277E430B4FA03FF6191660B7
:10CDC0006A781018687000290BD0607822781018E3
:10CDD00040073A46800EA4328018186060784018E8
:10CDE00060700020F0BD0000E8290020F8B511A017
:10CDF000FBF7CAFE144D00242E4628362F46283F46
:10CE0000A0002A583158C019FDF720FF6420FEF712
:10CE100031FE0EA0FBF7B8FE0B486C388078002876
:10CE2000EED0641CE4B20A2CEAD30948FBF7ACFE4E
:10CE3000F8BD00003E3E2052657472696576696EE9
:10CE40006720646174610A006C2000202E000000DD
:10CE500068B9010070B501240B49600408600B49F2
:10CE600040108860094940398860094D6C602F2066
:10CE7000FBF740F9AC60074D00242F202C61FBF735
:10CE800039F9EC7070BD000080E100E04013014012
:10CE90000010014050210020FF21074809310022E5
:10CEA0004250064881690648037DC268D154017D1D
:10CEB000491C01757047000000200040002500401B
:10CEC0000428002070B500240546601C90B00007BF
:10CED000000F08A9103008940870601C0007000FAC
:10CEE000103048708878F9263040801C88701C21EA
:10CEF00001A8FBF75AF969460879102108436946E9
:10CF00000871029408A80494059407940690287860
:10CF100008A988710320694688841120009408704C
:10CF200048708878F7213040801C0840EF21084085
:10CF3000012630436946887014210AA8FBF735F9A9
:10CF400009A80A9068460B9069460E8614204C8604
:10CF500088862B4668880C330AAA01A9A2DF10B084
:10CF600070BD00001FB5012269460A7008720448AE
:10CF7000C16801910021C17406C8684690471FBD71
:10CF800004280020FF220548253200218150FF227D
:10CF900009328150012101607047000000200040EB
:10CFA000F0B54C4C8BB000264A4FB5006C37384674
:10CFB000283041597A598438FDF748FE6420FEF73D
:10CFC00059FD711C44A0FBF7DFFD47A02169FBF769
:10CFD000DBFD38462838415948A0FBF7D5FDA0783D
:10CFE000216900284B48405923D0884248D00590F9
:10CFF00038462830415B785B6A469181D08105A82C
:10D00000019001201081024601AB06A80399FDF7AB
:10D0100051FE002809D001906420FEF72BFD0198F5
:10D020000028FCD1711C3CA028E06420FEF722FD02
:10D03000F8E7884224D0099036486A465030415B70
:10D04000785B9181D08109A801900120108102466E
:10D0500001AB05A80399FDF743FE0390002834D0E7
:10D060007D200001FEF706FD039801906420FEF785
:10D0700001FD01980028FCD1711C2DA0FBF784FD57
:10D080000020244FA0705037224879592830425947
:10D090006438FDF7DBFD6420FEF7ECFC2AA0FBF70B
:10D0A00073FDA0780028EFD028A0A168FBF76CFDE5
:10D0B0000020A0707D20C000FEF7DCFC761CF6B2DC
:10D0C0000A2E00D270E70BB0F0BD6420FEF7D2FC50
:10D0D000D2E70000002000200A5265636F72643AB4
:10D0E0002025640A0000000056616C756520696E99
:10D0F00020466C6173683A2025640A0056616C759D
:10D100006520696E207661726961626C653A2025DE
:10D11000640A0000442000203E3E5570646174693A
:10D120006E67207265636F72643A2025640A00009E
:10D130003E3E4372656174696E67207265636F720B
:10D14000643A2025640A00002E0000004E65772016
:10D1500056616C75652069733A2025640A000000E9
:10D16000F8B50546818923480027814206D1224827
:10D1700069898088814201D10020F8BD28896946EB
:10D18000FEF794FF002803D000206946088001279D
:10D190001A4E6846008800013458103413E0A06825
:10D1A000296888420BD12046FEF7D0F8002806D027
:10D1B00010486C60A881104880886881DCE760882E
:10D1C000800004190C3468460088012100013058A1
:10D1D00089024018A04202D92068401CDFD1002FEC
:10D1E00005D06A461088411C11800228D1D3052041
:10D1F000F8BD00001EF1000074210020302A00203C
:10D20000FFB50746806A81B0144600283DD000254E
:10D2100038462030009033E00C20B96A68430E187D
:10D22000B088801CFE2802D90C2005B0F0BD2288F1
:10D230000299401C885420881622401C80B220800D
:10D2400002990A542088401C80B22080029941181B
:10D25000308800F0BBFA2188401880B22080B28864
:10D26000002A0AD0B16800290FD0029BC018FAF733
:10D2700083FF2088B188401820806D1C0098EDB293
:10D28000007BA842C8D80020CFE70720CDE710B523
:10D290000020FCF7B3FF002803D000221146FCF762
:10D2A00043F9FCF7F9FE002803D000221146FCF7F1
:10D2B0003BF93CDF002803D000221146FCF734F98B
:10D2C00010BD10B508461146C046C04610BD00004E
:10D2D000002803D00249C860002070470E20704724
:10D2E0008421002070B5002901D08C0701D00720CF
:10D2F00070BD064C0125A16062800549636010DFA6
:10D300000028F5D1257016202EDF70BD8421002065
:10D31000C3D20100002803D00249086100207047F1
:10D320000E20704784210020F8B506460C46FBF716
:10D3300011FA051E0F4600D00120014349000B4899
:10D340004908411AC90F0DD0002E01D0012100E07B
:10D3500000210C4361004908401AC00F02D101208E
:10D36000FBF7ECFC28463946F8BD00000000F07FD2
:10D37000F8B50025064600950C4688886946FEF7F4
:10D380007FFE002E0AD00099C88862888018C88065
:10D3900008896288801A08813046F8BD0098C288E2
:10D3A000016892008918227812091300FBF713FC18
:10D3B000086605101C5066665C662246012308322A
:10D3C0002F48FDF749FE21780907090F203132E087
:10D3D0002246012310322A480831FDF73DFE21780C
:10D3E0000907090F303126E06078401E607025483B
:10D3F0004278002A0CD002780346D200403BD51870
:10D400000278521C5207520F02704278521E42702C
:10D410006088AB888000411819482A68FDF71CFE17
:10D420006188AA88891861806178002904D12178EF
:10D430000907090F403121700028AED00099CA8831
:10D440006388D218CA800A896388D21A0A81F8BD13
:10D45000224601230C320A48091DFDF7FDFD217803
:10D460000907090F7031E6E7C18862888918C18011
:10D4700001896288891A01810348F8BD0320DDE72C
:10D48000A02100202C2A00203412000010B50446F0
:10D49000FDF70CFE2046FCF7F5FA10BDFEB51F4C5B
:10D4A00000252769E06802906846FDF795FA01902B
:10D4B000FEF754F806460198002822D00023009871
:10D4C000E16817E00E680A46864202D9301A086001
:10D4D00012E0801BF31800261660D668D169B446A6
:10D4E000002E07D0FE183602360A56606646966051
:10D4F000D56115460029E5D12846E160FEF78CF894
:10D5000006E02846FEF788F8002801D1002E02D058
:10D510000298FDF75FF900202071FEBD5021002028
:10D5200001200249000508607047000000E200E0A9
:10D5300010B50E4BD968002906D002680C68A242CB
:10D5400004D8A21A0A60C161D86010BD0B4604E07D
:10D550000B46C969121B002904D00C689442F7D30A
:10D56000A41A0C600260C161D86110BD5021002076
:10D57000F8B51E4DEC68002C36D01D4800274068D9
:10D580002969401A0602360A2068B0421AD8361AAB
:10D59000C7192246107CE469002811D000201074BD
:10D5A0006B69002B09D0916950699847002807D012
:10D5B00000221146FBF7B8FF02E0516990698847E5
:10D5C000002CE1D16978A878814206D1401CC0B214
:10D5D000A870022801D10020A87004490006800D1F
:10D5E00018310F50FFF79CFFF8BD000050210020BC
:10D5F00000150140FF2107481D3100224250064816
:10D60000028A8168895C028A521C02820348C161D5
:10D610007047000000200040042800200025004042
:10D6200070B58EB005461C216846FAF7BEFD694606
:10D6300008780C210843694608700024019403947B
:10D64000049405940694287808A9887002206946F5
:10D650000884601C0007000F103007940877112021
:10D660004877887FF9210840F721801C0840EF2186
:10D6700008400126304369468877142109A8FAF743
:10D6800094FD08A8099007A80A9069468E85142081
:10D69000CC85088668882B1D09AAA2DF0EB070BD54
:10D6A0001FB500216A461170107204488268019209
:10D6B000817406C8684690471FBD000004280020FA
:10D6C00070B50178002909D0012901D0022904D1BF
:10D6D000002240681146FBF727FF70BD104C0F4D2C
:10D6E000E0782818FCF740F8E078401CC2B2A8188F
:10D6F000E2702038C07F0A2801D0142AEDD30749F0
:10D700000848FCF705FC082805D0002803D00022B3
:10D710001146FBF709FF0020E07070BDF8210020E2
:10D7200000200020D42500207CB50178254D01295A
:10D730000AD002292FD000292CD129462248FBF7F4
:10D7400001FF00282ED031E0406801781E481038D3
:10D75000FBF715FF1C4C103C002805D001216A4640
:10D7600011700190684608E0A068E168081A012875
:10D7700005D1002069460870684669688847A06836
:10D78000E168081AA188884204D80E480121801C4B
:10D79000FEF7E4FA7CBD02216A461170C068019070
:10D7A00068460CE001210748FEF73EFB0648816809
:10D7B000C0688842EED103206946087068466968EF
:10D7C00088477CBD10210020AC2700200870000A8B
:10D7D000487002207047000038B51549154A48883E
:10D7E00090420FD04A78144C521CD2B24A70237B1C
:10D7F000934208D3091D75DF002803D0A1690029D1
:10D8000000D0884738BD00254D70217C002907D005
:10D810003B2176DF002803D0A169002900D088478A
:10D8200061690029EED068460570884738BD000060
:10D83000FC200020FFFF00008027002012494868DC
:10D84000C005C00D19D0103840B2002807DA020711
:10D85000120F083A920892005118C96904E0810831
:10D860000A4A8900891809688007C00EC140080665
:10D87000800F012803D0032803D002207047002026
:10D88000704701207047000000ED00E000E400E078
:10D8900042788378521CD2B2934200D1002203789E
:10D8A000934201D1002070470A70416840781822E5
:10D8B000504308187047FFB583B016460C9D0D9C69
:10D8C0001F46022200950194039800F00CF80028EE
:10D8D00007D13B461022314600950194039800F091
:10D8E00002F807B0F0BDFFB583B0074600200C9CDE
:10D8F0008646268805463AE07868A90042181188CD
:10D90000684681805188C1800022694601A865DF90
:10D91000002839D1684601780598814226D17046A1
:10D92000002801D0002200E0022220888918421835
:10D930000D998A4227D8714600290AD1401C80B22D
:10D940002080069A049911542088401C20800120D0
:10D950008646218806980A18694601A865DF0028CE
:10D9600012D1694620880978401820806D1C3888BB
:10D97000A842C1DC704600280AD02088801B401EC7
:10D9800080B2FF2802D90C2007B0F0BD0699885557
:10D990000020F9E70179002902D1007B002800D09E
:10D9A00001207047FFB5064600208BB00546079062
:10D9B00014460220FDF75CFA00280DD06846008E60
:10D9C0000390002805D06846408E4949049088425B
:10D9D00004D10B200FB0F0BD0820FBE70E98002704
:10D9E000099008E00998F9004058FDF77BFD0028F0
:10D9F00008D07F1CFFB2A742F4D31598002803D0AB
:10DA0000022702E01020E5E7012707AB06AA21461E
:10DA10003846FFF7AFF90028DCD11498002814D05D
:10DA200045880088694608810699159A0878000992
:10DA30000001002A1AD0032219E00E99C2005118E1
:10DA400089884919401C8DB2C0B2A042F5D302A901
:10DA5000284600F053F80028E6D026494A78D21B21
:10DA60004A7044314A78121B4A70B3E702221043CD
:10DA70000007000F103008704C7003204880684683
:10DA800000891D4A88809068401C90600861039856
:10DA900008814D81049888810020C88103460DE0EB
:10DAA0000E98D9004258079802600E9A8918898802
:10DAB000818007A8FCF7A6FD5B1CDBB2A342EFD375
:10DAC0001598002809D006A8FCF73AFE06985421BC
:10DAD00001703189818031680161002E05D068466E
