:020000040001F9
:1080000060420020358101004F8101005181010053
:108010000000000000000000000000000000000060
:10802000000000000000000000000000538101007B
:108030000000000000000000558101005781010090
:108040005981010059810100999001005981010075
:108050005981010000000000018E0100098C01001F
:108060007990010089900100598101005981010036
:108070005981010059810100598101005981010094
:10808000598101008D8F0100598101005981010042
:10809000AD8F010059810100B58F010059810100A8
:1080A000598101005981010000000000000000001A
:1080B00000000000000000000000000000000000C0
:1080C0000348854600F062FD004800475DC8010096
:1080D00060420020401E00BF00BF00BF00BF00BFC5
:1080E00000BF00BF00BF00BF00BF00BF00BFF1D195
:1080F00070470000401E00BF00BF00BF00BF00BFB0
:1081000000BF00BF00BF00BF00BF00BF00BFF1D174
:1081100070470000401E00BF00BF00BF00BF00BF8F
:1081200000BF00BF00BF00BF00BF00BF00BFF1D154
:10813000704700000321094802680A4302600848AA
:1081400002680A4302600748804707480047FEE785
:10815000FEE7FEE7FEE7FEE7FEE70000240500403D
:1081600054050040D98F0100C180010030B50B4695
:10817000014600202022012409E00D46D5409D4201
:1081800005D31D469540491B254695404019154687
:10819000521E002DF1DC30BD70B5002425460028AC
:1081A00001DA01244042002901DA01254942FFF7A2
:1081B000DDFFAC4200D04042002C00D0494270BDEF
:1081C000F0B51FB40646002082B005464024019158
:1081D00000901BE0019922460F46304600F034FB28
:1081E000049A059B801A994110D3104619462246DD
:1081F00000F01AFB361A8F41019722460120002118
:10820000009F00F011FB38184D4100902046641E7D
:108210000028DFDC019B00982946324607B0F0BDFC
:1082200003460B439B0703D009E008C9121F08C08F
:10823000042AFAD203E00B780370401C491C521E3A
:10824000F9D27047D2B201E00270401C491EFBD245
:1082500070470022F6E710B513460A460446194651
:10826000FFF7F0FF204610BDF8B502464A40D40F94
:1082700042004B0052085B089A4202D2024608466E
:1082800011464A0023D0C30D4A00DDB2120EAD1ACA
:10829000202D35DA49020126490AF6058A19002CF3
:1082A00000D0524220214F1B1146B9402A411018DC
:1082B000C20D9A4221D0002C17D0012D08DCDA051E
:1082C000801AD20F8019D207DBB200F0E9FAF8BDAC
:1082D000DA05801A012340001B06C01880185A4294
:1082E0008018CA0F1043490007E04908C20711432C
:1082F000DA05801A80194008801800F0C9FAF8BD24
:1083000061000122511A001BF7E70122D2075140F8
:10831000AAE70122D2075040A6E7024670B54A40BC
:10832000D30FDB0740002DD04A002AD0010E140ED7
:10833000000212020919400A520A8418E501044693
:108340005443000A120A2E045043A4194219200C67
:10835000C543AA18120C0125AD03521C5219120470
:108360007F39240400D0521C104301D44000491E20
:10837000C2B20C06C0092018401C4008802A02D056
:1083800003E0002070BD40084000002900DA002012
:10839000184370BD70B502464A40D50F40004A00F0
:1083A000ED0740085208002814D0002A12D0C40D4E
:1083B000D30D41020120C0055202490A520AE41AB3
:1083C000091812187D34914201D3641C00E0490061
:1083D000002C01DA002070BD0023914201D3891ADC
:1083E0000343400849000028F7D100290AD09142F0
:1083F00002D10121C90705E0914201D2012101E02A
:108400000121C943E005C018401900F041FA70BDD0
:10841000420005D04200120E52428A4201DB002087
:108420007047C90508187047F0B507460846584018
:1084300087B0C00F049048000E4659004008490814
:10844000BC1A884105D2384631461E4617460B46AF
:1084500002465800400810434CD0300D03904005B0
:108460005900400D490D0590401A0290402872DADB
:1084700018030121000B090508430190049800929C
:10848000002805D0019952420020884100920190B5
:10849000029840210A1A0199009800F0C5F9054692
:1084A0000C466B4607CB00F0E0F9C0197141039A06
:1084B0000E0D0023D71756401A467A40164344D073
:1084C000049A002A2DD0029A012A039A15DC12057B
:1084D000C01A914101263605001C7141D20F059E3C
:1084E000D2070093019202962A46234600F01EFA14
:1084F00007B0F0BD38463146FAE71605224A0F4666
:10850000B218C01AB74101210905001C4F410018DB
:108510007F41114618187941E20F10436D196441EB
:1085200013E0E2076D0815436408C2071443039A79
:1085300001261205C01A91413605001C7141CE0773
:10854000400830434908C01851412A46234600F0EC
:10855000E0F9CDE7FFE7049801224000C117121AA5
:1085600000238B4104983146C417381AA141EEE725
:1085700030B40124E407634030BC55E730B4012433
:10858000E407614030BC4FE70000E0FFF0B51FB4E6
:1085900088B00B990998002448400999C00F4900F8
:1085A00049080991C0070B990090490049080B91AF
:1085B00009990898A64608431CD00B990A980843C5
:1085C00018D0099801244000420D4800410D099837
:1085D00024050003000B204309900B980003000BB7
:1085E00020430B9050181C4940180022019014465B
:1085F000104605E0002001460DB0F0BD032801DA69
:10860000034600E003239C46C11A0AAE0AE05F005D
:1086100008ADED5B4F00F75B7D430027AA187C4156
:10862000491C5B1E6145F2DD410004AB5A52210436
:10863000120C0A43240C401C0828DFDB019802902E
:108640000099704601910090059B049A079906983D
:1086500000F06CF9D0E700000DFCFFFF70B54B0097
:108660005B0803430BD04B005C0D0026334665428C
:10867000B341D417AD1AA34102DB0020014670BDFF
:1086800012053018514170BDC217C10F504010B5CE
:108690004018CA079623002100F002F910BD10B55A
:1086A00000229623114600F0FBF810BD0EB5C2174C
:1086B000C10F5040CA0740180021054B0293019298
:1086C00000910A460B4600F031F903B000BD0000EE
:1086D00033040000C20F410040020123400ADB05C1
:1086E000D207090EC0187F2901DA002070479629A9
:1086F00003DC9623591AC84001E096398840002AC5
:10870000F4D040427047410040020122400AD205A5
:10871000090E80187F2901DA00207047962903DCB2
:108720009622511AC8407047963988407047000019
:1087300070B5CD0F4A0009030123090B1B0519432E
:108740000B4BED070024520D9A4201DA002070BD58
:10875000074B34339A4203DC9A1A00F075F802E0B2
:108760000449511888402C43F1D0404270BD0000AC
:10877000FF030000CDFBFFFF4A0009030123090BA3
:108780001B051943094B10B5520D9A4201DA00201E
:1087900010BD064B34339A4203DC9A1A00F054F8A9
:1087A00010BD03495118884010BD0000FF030000B0
:1087B000CDFBFFFFC20FD207400040080BD0C10D18
:1087C0000723DB01C91840020905400A1143C2080A
:1087D000400711437047002001467047CB0FDB076D
:1087E000490010B5490802460A4307D00A0D07247C
:1087F0000903E401090B121B002A01DC002010BD53
:10880000C900440F0C43C100E018D205801800F0E5
:108810003FF810BD0122D207002800DB101A002902
:1088200000DB511A8842704710B5202A04DB01464C
:10883000203A9140002010BD914020239C1A03460D
:10884000E3401943904010BD10B5202A04DB0846D0
:10885000203AD040002110BD0B46D340D040202408
:10886000A21A91400843194610BD10B5202A06DB14
:10887000CB170846203A1041C1170B4306E00B46C0
:108880001341D0402024A21A91400843194610BD3C
:10889000002904DA401C490001D14008400070471B
:1088A00070B40024050C05D11024000402D1002965
:1088B00021D01124050E01D100020834050F01D189
:1088C0000001241D850F01D18000A41C002801DBBC
:1088D0004000641C002908D020252E1B0D46F540C1
:1088E000A14000D001212943084301061B1B000AB7
:1088F000DB1D02D5002070BC7047DB0518188018FE
:108900000029F8DA401C4900F5D170BC400840004D
:10891000704710B5002B08DA0024401C6141921802
:108920005B411A4301D14008400010BDF0B51FB4AF
:1089300082B005460C0003D0084600F03FFC02E080
:1089400000F03CFC20300246009021462846FFF70C
:108950006BFF049B059A04460F46184311430843D6
:1089600014D0184610431BD0009840210A1A18460C
:108970000599FFF769FF05460E46009A0599049888
:10898000FFF752FF084305D0012004E02046394696
:1089900007B0F0BD0020C11705430E432C433743F9
:1089A00000990E986305401A7905E40A00220C43E9
:1089B000FD0A0A3002D500200146E9E70105101939
:1089C00069410C9C0D9D00196941FFF7A2FFDFE78B
:1089D000F0B50C465C4085B0E40FE40703944C000E
:1089E000002664085900944649080246029622432C
:1089F00021D062460A431ED06200570D4A000E0382
:108A00002303550D012402462C492405781B1B0B1A
:108A1000360B401823432643614600901C46501AEB
:108A2000B44103D30098401C009002E092180098D3
:108A30005B41002803DA0020014605B0F0BD0020AC
:108A4000012109050746864611E064461D46141BB0
:108A5000B54106D36546521BB341744607430C43E8
:108A6000A646CD0740084908284392185B410546B1
:108A70000D43EAD11046184313D0604619465040C2
:108A80007140084306D06046101AB34106D2012255
:108A9000002306E000220123DB0702E00122D2438B
:108AA0005310009874460105381C6141029C039DD7
:108AB00000196941FFF72DFFBFE70000FD0300002B
:108AC000FEB500231A461B1A8A4103DB002001462B
:108AD00003B0F0BD4A000D0301212D0B0905520D15
:108AE0000D43D10702D100186D41521E5110FF31C4
:108AF000FF310131002704463E4638460097019178
:108B00000246012100200905FFF79EFEC3197141AD
:108B1000F818324684468E464A4161462846611A14
:108B2000904104D36046241A954176461F46241985
:108B300000986D41401C00903428E1DDF919304661
:108B40007041091BA84103D20022D243134601E021
:108B50000022134601980105381C7141FFF7D9FE28
:108B6000B6E7000010B5002904DB0124E407404209
:108B70008C412146002B04DB1C460123DB075242BB
:108B8000A341994200D1904210BD0000064C01253E
:108B9000064E05E0E36807CC2B430C3C98471034A5
:108BA000B442F7D3FFF790FA80030200A00302005B
:108BB00070B58C180578401C6B075B0F01D10378EA
:108BC000401C2A1106D10278401C03E006780E7082
:108BD000401C491C5B1EF9D12B0705D40023521EF3
:108BE0000DD40B70491CFAE70378401CCB1A921C79
:108BF00003E01D780D70491C5B1C521EF9D5A14283
:108C0000D8D3002070BD000070B51A480026066059
:108C1000194C207B0125002802D0607B002825D13B
:108C200016488068FFF730FD616DFFF76EFBE16C61
:108C3000134B8A00491C9850E164402909D3206DE8
:108C4000012806D12573022020650B48543002F01C
:108C50001BFAE06C802809D3206D022806D16573C9
:108C60000548E6645430256502F00EFA05480560B3
:108C700070BD000000710040002000200075004021
:108C8000EC23002000700040FFB593B00546501063
:108C90000F9016460C4604920120169910908842B7
:108CA0007EDC08461099401A5449800009580A9100
:108CB0005249383108580C900498401008907F2091
:108CC000C00503900020019067E0074646E0089841
:108CD00038188000119028580E90B8000790285836
:108CE0000B900E99FFF7C0FA0690119820580D903E
:108CF00007980D9920580990FFF7B6FA05900E993C
:108D00000B98FFF702FB0B900D990998FFF7FDFAFE
:108D100009900199FFF701FB0E9003990B98FFF75B
:108D2000FCFA0E99FFF7F1FA0146119829500199C2
:108D30000B98FFF7F2FA0B9003990998FFF7EDFAF9
:108D40000B99FFF791FA014611982150079906985F
:108D5000685007980599215004983F18B742B6DB30
:108D6000039F0C990198FFF7D8FA02900A9903988B
:108D7000FFF7D3FA0299FFF7C8FA039038460C9927
:108D8000FFF7CBFA07460A990198FFF7C6FA39466A
:108D9000FFF76AFA01900098401C0090089900E0E3
:108DA00007E0884291DB0498401004901098401C22
:108DB00073E701200346012E12DC1BE083420FDA29
:108DC0008100091F6F589A00BC466758121FBE46A3
:108DD000AF586F50A75867506746AF507746A750B7
:108DE0000F9901E0401A49108142FBDB40185B1CDF
:108DF000B342E3DB012017B0F0BD00009401020094
:108E0000F8B50024FF2501350126274600942846A1
:108E100004F048FE002808D034484068304204D0AE
:108E2000334800212818344301602D1D76007F1C33
:108E3000ADB2042FEBD3FF207D3004F033FE0028C9
:108E400007D02C4800210160400704432A480069EC
:108E500000902A4F200712D00126002526420AD072
:108E60002748AA00111808690969C004C00E8903BF
:108E7000BA58890F904776006D1C042DEED3002C54
:108E800030DA00241D4E0021301940304156491C73
:108E900025D00778BD06AD0E284602F053F98000B4
:108EA0003658002E1BD0BF090121A940154AA80041
:108EB00080180068009A8003800F114202D00228B7
:108EC00002D00CE003280AD1032F05D102280AD0D2
:108ED0000221284604F0CEFD39462846B047641CDE
:108EE000042CCFD3F8BD0321F3E70000006300405A
:108EF000006000407C610040000500501C370020ED
:108F000000650040000700508307FF22DB0E9A40F7
:108F10008907090E994000280BDA0007000F08386E
:108F2000830808489B001818C36993430B43C36127
:108F30007047830804489B001B1818689043084337
:108F40001860704700ED00E000E400E000B585B077
:108F500014220C496846FFF763F9012069464872FC
:108F600008720848084A103800F0D6FF002803D0DD
:108F70000022114600F03CFE0248103800F090FF3D
:108F800005B000BD7401020055EC010010B50649A2
:108F90000020086048608860C86003494039086064
:108FA000486006F073FD10BD4011014010B506F099
:108FB00003FD10BD10B507484068002807D0804762
:108FC000002803D00022114600F012FE10BD03F06D
:108FD00099F810BD8023002010B503F0FFF9002898
:108FE00005D01F491D484860C8131E4988611E48A6
:108FF000018CC9B201290BD1828C120708D1028DD4
:109000001206120F042A03D1828D1206120F0AD003
:10901000012921D1818C09071ED1018D0906090F73
:109020000A2904D007E0114A01219160F5E7828DF9
:109030001206120F05D00D290ED1808D0006000FEB
:109040000AD10B480168012904D00A49016001686E
:109050000129FCD1C021416110BD0000DFFF07C024
:1090600000050040006C0040C00F00F0000600400A
:1090700000EC06407593000010B50021014804F093
:1090800037FB10BD0080004010B50121014804F0FD
:109090002FFB10BD00900040F0B53C4D012185B084
:1090A0004902284604F00DFD01270026384C00280F
:1090B00023D0FF212531284604F0FEFC00281CD0D7
:1090C000FF2025302E508120324980008860607D4D
:1090D000002800D16F600221684601702E4908689F
:1090E00008600390E17C68460172E0680190E674D4
:1090F00006CC6846083C90471DE00421284604F051
:10910000E0FC002817D0FF210931284604F0D4FCE8
:10911000002810D006F032F8E07C217D88420AD188
:10912000607D002800D16F6081201A49800088602E
:10913000207D06F089F8FF211D31284604F0BCFC93
:1091400000280DD0A07C218A884202D906F028FD93
:1091500006E0FF211D316E50002801D006F076FD9B
:10916000FF214531284604F0A7FC00280CD0FF2041
:1091700045302E50607D002800D02F60E07C002814
:1091800002D0207D06F060F805B0F0BD0020004060
:109190006437002000230040802400400FB410B545
:1091A00003A9044B044A029800F0D8F810BC08BC8C
:1091B00004B0184775BB0100542300202021020C85
:1091C00001D010211046020A01D0104608390209C8
:1091D00001D01046091F820801D01046891E42089E
:1091E00001D0881E7047081A704730B47446641E58
:1091F0002578641CAB4200D21D46635D5B00E3181A
:1092000030BC18474900CA020243100000D00420B5
:109210004A0D01D001221043044A490D914201D167
:1092200002210843012800D105207047FF070000F4
:10923000F8B504464F1EC8000838211815461E46CA
:10924000086849683A4606239A4310D02A463346AE
:10925000FFF79CF93A46D200083AA3181A687F1E15
:109260005B68FFF7E1F806223B469343EED1022FFD
:1092700023D0042F11D0062F2FD12A463346FFF7D3
:1092800085F9E36AA26AFFF7CFF82A463346FFF76B
:109290007DF9636A226AFFF7C7F82A463346FFF76B
:1092A00075F9E369A269FFF7BFF82A463346FFF76D
:1092B0006DF963692269FFF7B7F82A463346FFF76D
:1092C00065F9E368A268FFF7AFF82A463346FFF76F
:1092D0005DF963682268FFF7A7F8F8BD002210B5B2
:1092E000134610460149FFF773FB10BD0000F03F25
:1092F00010B5FFF799F810BD002210B513461046BF
:109300001146FFF765FB10BD10B50721024A00208A
:109310000907FFF7A3F910BD01030000034A10B5C8
:1093200000201107FFF79AF910BD000001FDFFFFB3
:1093300002E008C8121F08C1002AFAD1704770471E
:10934000002001E001C1121F002AFBD1704700007C
:10935000014908607047000098230020FFB591B0D4
:109360000F460546002606E025280AD0149A1399D0
:1093700090476D1C761C28780028F5D1304615B032
:10938000F0BD002400940121F34A029400E004435C
:109390006D1C2B780846203B98401042F7D1287866
:1093A0002A280ED0022128780246303A092A15D8F8
:1093B000009A0A235A43303A80180C436D1C0090DF
:1093C000F1E701CF0090002805DA012040030443B3
:1093D000009840420090022004436D1C28782E28FB
:1093E00015D10420044368786D1C2A280AD101CFC6
:1093F0006D1C02900BE002990A225143303940184B
:109400006D1C02902878014630390929F3D9287853
:109410006C2810D006DC4C281AD068280ED06A2898
:1094200017D104E0742813D07A2812D110E001205B
:10943000400504430CE00121090501E00321090571
:109440000C436978814203D10120000524186D1C6A
:109450006D1C287803906E281ED00CDC632831D058
:1094600004DC00288AD0582811D1B2E064287BD0CF
:1094700069280CD178E073282DD004DC6F2870D0D7
:10948000702804D1A7E075286CD078286BD0149A86
:1094900013999047761C62E06002400F022807D0C3
:1094A00003280AD0042838680AD006603F1D56E019
:1094B0003868F11706604160F8E738680680F5E71C
:1094C0000670F3E73878694608740020487404A8E9
:1094D0000390012003E0386803900020C0433F1D43
:1094E00061070FD5002101E00199491C029A019101
:1094F000914213DA8142F7DB019A0399895C0029D2
:10950000F2D10BE0002101E00199491C0191814257
:10951000FADB019A0399895C0029F5D10199009839
:10952000139A401A00902146149B00F03BF90199D0
:109530008019461807E0039803990078491C0391A5
:10954000149A139990470198401E0190401CF2D143
:109550002146149B139A009800F014F986196D1C8B
:1095600009E741E033E034E00A200021049005914E
:109570006002410F022905D001CFC217944603298A
:1095800005D007E0FF1DFF08FF0003CF06E000B293
:10959000C2179446042902D140B2C1178C4600225A
:1095A0006146944506DA0A460021404291418C46C4
:1095B0002D2102E0210504D52B216A4611760121D7
:1095C00003E0E10701D02021F7E7019154E00A20F0
:1095D0000BE0102009E01020049000210420044337
:1095E00008200591029003E00820002105910490D5
:1095F0006002410F022905D001CF002294460329C1
:1096000006D006E0FF1DFF08FF0003CF8C4603E0F5
:1096100080B2042900D1C0B20021019121072BD5CD
:109620000399702906D0049A1021059B4A401A43D9
:1096300005D00EE040216A461176012108E061461E
:10964000014306D030216A461176039951760221F2
:109650000191049A0821059B4A401A430CD16146A6
:10966000014301D1610707D530216A4611760121F6
:1096700001910299491E02910399582904D037A1FA
:1096800003910FA90F910DE039A1F9E76146059B00
:10969000049AFEF795FD039B8C469B5C0F9A521E25
:1096A0000F92137061460143F0D10F9807A9081A71
:1096B00020300390600704D5012000048443029801
:1096C00001E0012002900399884201DD401A00E088
:1096D000002041180290019809180098401A009043
:1096E000E00306D42146149B139A009800F05AF820
:1096F00086190020049008E006A9085C149A1399C2
:1097000090470498401C761C049001998842F3DB32
:10971000E0030CD52146149B139A009800F042F800
:10972000861904E0149A302013999047761C029908
:10973000481E02900029F5DC08E00F980F99007888
:10974000491C0F91149A13999047761C0399481E4F
:1097500003900029F1DCFBE60928010030313233A7
:10976000343536373839616263646566000000005D
:109770003031323334353637383941424344454647
:1097800000000000F8B5044600251E461746880470
:1097900004D405E039462020B0476D1C641EF9D57D
:1097A0002846F8BDFFB50446002581B01E46C80313
:1097B00001D5302700E02027880404D505E038468D
:1097C0000399B0476D1C641EF9D5284605B0F0BD5D
:1097D0001CB510494869896900900191684603F0F9
:1097E000A1FA0D4801214268C903FF231B029A43D5
:1097F0001143416001210160084841600848016847
:109800000902090A02071143016006498020086025
:109810001CBD0000580102000075004000730040AC
:1098200004E400E000E100E0F7B584B0002516880C
:1098300007461580406B1446002813D0037805981E
:10984000032E51D30221017021881122491C89B2B3
:10985000218042542188491C89B2218043542088A8
:10986000401C2080386B00281DD0054620880599B3
:1098700002461232B24237D811220A5420881022EE
:10988000401C80B220800A542088401C20800F2079
:109890002A5C2388401ECA54228840B2521C22806F
:1098A0000028F5DA0025384620300290807B002819
:1098B00006D033462246059902F0FEFD050014D17C
:1098C0000298407B002806D032462146059801F0D8
:1098D00067F8050009D1B878002823D00598864696
:1098E0002088001DB04202D90C2007B0F0BD6846A8
:1098F00079DF0028F9D1218803207246505420884E
:109900001921401C80B22080115420887146401CCF
:1099100080B2208041186846008806F05BFA2188F2
:1099200040182080F878002817D0218803230A46A1
:10993000FB56C91C0598B142D6D802218154218812
:109940000122491C89B2218042542188491C89B2D4
:10995000218043542088401C20807868002817D03C
:1099600021880023C3560A46C91C0598B142BBD8BA
:109970000221815421880A22491C89B22180425443
:109980002188491C89B2218043542088401C2080B2
:10999000388900280AD00094384601960622022110
:1099A0000830059B06F08BFA05009ED1388A002806
:1099B0000AD0009438460196072203211030059BF7
:1099C00006F07DFA050090D1388B00280AD000946B
:1099D00038460196152214211830059B06F06FFABF
:1099E000050082D1386A002806D033462246059900
:1099F00001F03AFD0500D8D1786A002806D0334638
:109A00002246059903F0E8F80500CED10298007BC4
:109A1000002807D0334622463846059905F036FE21
:109A20000500C2D13878002807D033462246384690
:109A3000059903F027F90500B7D1284655E710B579
:109A4000002809D0032000F049FE002803D000229E
:109A5000114600F0CDF810BD002000F03FFE0028B8
:109A600003D00022114600F0C3F8002001F09CF959
:109A7000002803D00022114600F0BAF874DF10BDB0
:109A800010B501220221002001F06AF9002801D05E
:109A9000072812D107220221012001F061F90028D4
:109AA00001D0072809D100210A22084601F058F9FF
:109AB000002801D0072800D1002010BD30B5A7B084
:109AC000382101A8FEF7C5FB022168460171002478
:109AD00084710521C17138210FA8FEF7BAFB012559
:109AE00010A885810D48149024211DA8FEF7B1FB14
:109AF00020A80570402021901E202290084B1DAA0E
:109B00000FA9009401A800F0DDFC002803D000227A
:109B1000114600F06DF827B030BD0000482000204D
:109B200085DB0100044842680121C9050B469343C7
:109B300083600A40C26070470005005070B50C4653
:109B4000054622462946034800F0CAF81128F8D0F5
:109B500070BD00006401020070B50024064D06E0EF
:109B60006968E000085C012103F06EF9641C287844
:109B70008442F5D3002070BD20230020F8B515469F
:109B80000C460646052A01D20720F8BD03F032FA3A
:109B9000002803D103F004FA0028F6D11049002070
:109BA0004E600C70C8608D6008610E4D0DE0E000E5
:109BB00069688019009181786A46517000780A4A74
:109BC000694603F091F90028DFD12046641EE4B213
:109BD0000028ECD1054A0021024800F057FAF8BDF0
:109BE00020230020AC020200DDBF0100A9B5010066
:109BF000BFF34F8F04490348C860BFF34F8F00BFC6
:109C0000FDE700000400FA0500ED00E010B58268F1
:109C1000C368934203D001F0E8FE002010BD052088
:109C200010BD002906D0002A02D0531E134203D0D3
:109C3000092070470E2070470160838000218160F9
:109C4000C1600846704710B58268C3689A1A838855
:109C50009A4203D801F0D3FE002010BD042010BDAD
:109C6000FFB5094E81B000241D46A0003758002FD3
:109C700003D001A807C82B46B847641CE4B20A2CDD
:109C8000F3D305B0F0BD00008038002030B40546A5
:109C90000B8A0879CA6809680C682946A44630BC52
:109CA0006047000070B5054640680C4E4179715C14
:109CB0000124FF290ED0FE290DD003F051FC0146EE
:109CC000686833464079820008339A58914202D13D
:109CD000FF2131540024204670BD0000682300207D
:109CE00070B5044600680D46008B642180B2504375
:109CF000FEF73CFA82B22946204600F001F870BD1A
:109D0000F7B50546046801980C214843071923203C
:109D1000005D1646022801D00820FEBD7868B042DA
:109D200006D1E169002945D068684079884741E05B
:109D30002846FFF7B7FF002801D01120FEBD696853
:109D40001D4A4979FE2050547968002902D0A06943
:109D5000814210D3002E02D0A069B04205D832460D
:109D60002846019904F0A8FF14E0324628460199DC
:109D700004F0DCFF0EE0002E01D0B04205D83246E0
:109D80002846019905F05AF804E032462846019920
:109D900005F0D8F82868C06900280BD06868064A22
:109DA000407902214000921C821801981154686881
:109DB00003F00CFC0020FEBD68230020FFB581B03D
:109DC00006460768029D0C2045432320C05DEC1920
:109DD000002802D0082005B0F0BD00206060049883
:109DE000A0722C4800680090284631680A30085C50
:109DF000002808D0002069464870039803F002F953
:109E0000002816D101E00120F5E7039878510127D9
:109E1000039938468840049A1F49002A01D0C86037
:109E200000E0886000256019083003F091F90028EF
:109E300001D00420CFE76D1CEDB2022DF3D3207AC0
:109E400003F0EEF9607A03F0EBF9206803F026F9ED
:109E500005467068029903F0A9FB0146207A2A465C
:109E600003F0BEF9206803F019F905460221706875
:109E700003F09CFB0146607A2A4603F0B1F9E772D1
:109E80007168064A4979002049008A18029950549D
:109E9000A1E70000E0020200000500506A23002054
:109EA000F8B50768054600246A68204652790C21F7
:109EB00048435300174AC61900219A181155F17AE0
:109EC00000290DD029680A30085C002820D0002124
:109ED000306803F005F9306803F0EAF8002070609C
:109EE000641C022CE0D369680A4AFF204979921E5B
:109EF000505468680121006803F09EFF686803F011
:109F00003CFB686803F07EFB02202037F870F8BD48
:109F10000121DDE76A230020F7B588B00E00054671
:109F200009D02C68204620300690C078002804D044
:109F300008200BB0F0BD0B20FBE703F005FB002869
:109F400003D0852801D00420F3E703F053F800285C
:109F500005D103F025F8002801D00320E9E7069891
:109F6000FF21017006984170069881700020074615
:109F70000C2141430B19DF72FF221A725A72002220
:109F8000D243401CC0B262500228F1D30027E0192E
:109F9000203003F0DDF8002809D17F1CFFB2022F2A
:109FA000F5D32046223003F02FFA002803D02846AC
:109FB00004F006FEC7E70027B8003258501C12D044
:109FC000F019037A39462846FFF7F8FE0490002876
:109FD00004D0284604F0F4FD0498AAE7002239468C
:109FE0002846FFF78DFE7F1CFFB2022FE4D300202E
:109FF0000922224B316901E04908401C994201D9EC
:10A000009042F9D31E4A51689268029201916946C2
:10A01000087168681B4A4079029001A9686803F0DA
:10A0200013FB070004D0284604F0CAFD384680E739
:10A030003169686803F0B2FB0646A061686803F006
:10A040009CFA01270097042332460221686803F036
:10A05000E3FA0221686803F0B0FA0A98E0616868E0
:10A0600009494079084A80000D506968FF20497904
:10A07000103A50540698C77000205AE7FF0F0000AE
:10A08000E002020061EC010078230020094B9B688C
:10A09000002B07D0002A07D0002805D00068037CD9
:10A0A000002B03D00820704707207047417442619D
:10A0B0000020704734230020FFB59007002581B0B1
:10A0C00014460E46002832D11B4F002C31D005F02B
:10A0D00033F80498786103203870334618212246FB
:10A0E00000204B43BC601834C10089180D704D70BE
:10A0F0008E704C601C19401C0328F5DBFD607D70E0
:10A1000001240E48BD702405046003211420FEF7CD
:10A11000FBFE0B4804600B4C0198A060032111204A
:10A12000FEF7F2FE60683861002005B0F0BD072040
:10A13000FBE7BD60FBE700003423002080E200E085
:10A1400000E100E000150140FEB50D461B49174631
:10A150008968044600292AD0002C28D0052D01D278
:10A160000720FEBD6069002821D0607C012820D036
:10A17000002605F067FEC00010490190896840186C
:10A18000694605F089FE002815D0012101700C49AF
:10A19000446049680830E2C008490198896841185C
:10A1A00068460078487005F049FC0020FEBD082094
:10A1B000FEBD2E46DDE70420FEBD00003423002056
:10A1C00000150140F8B5134D0446A96800291CD0BC
:10A1D000002C1AD06069002817D00026267405F0DC
:10A1E00031FEC700A8686946381805F055FE0028FA
:10A1F0000DD0022101704460A868391868460078C3
:10A20000487005F01BFC3046F8BD0820F8BD04205E
:10A21000F8BD00003423002010B5044609488168C9
:10A22000C2688088511A814207D10121064803F093
:10A2300019FB002801D0052010BD21460148FFF779
:10A24000E5FC10BDFC360020DA22002070B5044683
:10A25000224888B01E460D0042601CD0A88829689C
:10A2600082B21F48FFF7DDFC002815D1A889A96834
:10A2700082B21B481030FFF7D4FC00280CD12022FA
:10A2800018496846FDF7CCFFA068069020790028A1
:10A2900004D0012103E0072008B070BD002168460A
:10A2A000017506776079002800D00E206946487550
:10A2B000E0780290A0780390207801906078009078
:10A2C0000949684603F076FA0028E5D103F024FB3B
:10A2D00002480121801C03F0C5FADDE7D8220020E6
:10A2E000FC3600205C02020031FD010010B504467E
:10A2F000064801214470401C03F01AFB112803D1C9
:10A3000021460348FFF79FFC10BD0000D822002023
:10A310000C370020800B01D00020704701207047CF
:10A320000248C178491EC1707047000058230020C0
:10A330000248C178491CC1707047000058230020B2
:10A34000F8B50E460546002A26D002F029FE144C28
:10A350000028606403D000221146FFF749FC114831
:10A36000002D8068009001D0012100E000216846A6
:10A37000C170002141700C4A6946304602F0B4FDBC
:10A380006064002803D000221146FFF731FC012150
:10A39000304602F059FDF8BD084602F031FDF8BD27
:10A3A000002000205801020049C0010070B500F0F3
:10A3B00027F80A2148436421FDF7D8FE0646002409
:10A3C0000E4D17E029790020FFF7B8FB297901200D
:10A3D000FFF7B4FBC82002F0D5FC00210846FFF7C8
:10A3E000ADFB00210120FFF7A9FBC82002F0CAFC49
:10A3F000641CE4B2B442E5DD70BD0000BC20002066
:10A4000010B5134818214160124900220A60012347
:10A4100003600A60104A13600A68002AFCD0806852
:10A42000FF21E12212015043FDF7A0FE84B201207A
:10A4300005F0DCF9642002F0A5FC7D200001201A63
:10A44000642148437D21C900FDF7A6FEC0B210BDBE
:10A45000007500400071004000700040F0B50C46EF
:10A4600093B01F216A46118007260027918000289B
:10A4700009D0C17849070DD502A9FFF7D5F9002801
:10A4800009D102AD01E000251780002C0ED0E07844
:10A49000002802D0304613B0F0BD01AA0AA9204618
:10A4A000FFF7C2F90028F6D10AAA02E068460022A6
:10A4B000878068468088C3B268460088C1B2284653
:10A4C00072DFE8E770B50D4604991646040042D0E5
:10A4D000002E40D0424800224271C3600161242214
:10A4E00031464048FDF79CFE00F0D0F83D4934313C
:10A4F0000846103801602031816038215C38FDF752
:10A50000A8FE3848217838380170A1788170E17848
:10A51000C170617841706269216942610161E268DC
:10A52000A168C26081600146E369A269CB618A616A
:10A53000616A002919D00146AC310246B832416245
:10A540008A60636A1B880B80616A436A8988998084
:10A550000021436A06E00E2070BD666AB668765C2C
:10A560005654491C9E888E42F7D8A16A00291CD0F7
:10A570001C4AAC3211460C398A608162A36A9B88FE
:10A580008B80A16A836A098819800021836A04E0AC
:10A59000A66AB668765C5654491C9E888E42F7D8E7
:10A5A0002C210A5D0F4918390A73216A002909D044
:10A5B0000B4914310162226A52884A80216A026A78
:10A5C000098811806168002904D00549891D41600E
:10A5D00061684160034829463838FFF73FFF70BD86
:10A5E000A4220020F435002010B502881A4C102A4D
:10A5F00017D00021112A17D0192A11D180790028EB
:10A600000ED1607901281BD002281FD003281FD04B
:10A61000042805D12171E2680846002A00D090473D
:10A6200010BD8088208110BD61708088218988429A
:10A63000F9D1012005E021690029F4D0884710BD37
:10A64000022000F04BF80028F5D110BD0320F8E7F8
:10A65000032020710420F4E7A422002010B5022872
:10A6600001D003280ED1084C207800280AD0002001
:10A670002070607900F032F8002803D021690029A9
:10A6800000D0884710BD0000A422002010B507218B
:10A690000148FDF7DEFD10BDBC22002010B50D48BD
:10A6A0000078012814D10C4C6078002810D1607912
:10A6B000002802D074DF00280BD10120607060797F
:10A6C00000F00CF8002803D02169002900D0884749
:10A6D000002010BDF4350020A4220020F0B5754CF8
:10A6E00087B06071002606A8069604F049FA012793
:10A6F000082806D000286FD10698002802D02770BD
:10A70000D4E00696FFF7C2FF6B4D6878002802D0B0
:10A710006079012805D0A87800280AD0607902283D
:10A7200007D1E168002903D0E7700820884700E0DE
:10A73000E6706079012808D16878002809D05D4862
:10A74000193003F095FB002803D06079022802D06D
:10A750000CE002206071A878002805D05548193017
:10A7600003F086FB002801D103206071287B0028BC
:10A7700004D16079032801D104206071287E00286B
:10A7800004D16079042801D166712671E16800293D
:10A790000AD06079032801D0042805D12878002840
:10A7A00002D06078002818D0A67018216846FDF7FE
:10A7B00050FD68460670019606720396607901287E
:10A7C0000FD0022816D03C4E243637465C3F032873
:10A7D0001CD004285ED13BE069E0A77007208847C1
:10A7E000E3E73448183001906846077046820682D5
:10A7F000277152E02F481830019068460770298968
:10A800004182A98801820220207146E0A88A694617
:10A810004882288A08822848243005F0BFFB002897
:10A8200005D02878002802D06078002801D00320C5
:10A830002FE002206946087204200396F8701E4833
:10A8400000213838FFF70AFE002830D1052020E02B
:10A85000A88B69460882288C48821748243005F066
:10A860009DFB002805D02878002802D060780028B9
:10A8700001D004200DE002206946087204200396EE
:10A88000F8700D4800213838FFF7E8FD00280ED198
:10A89000062020716079002803D0684673DF002805
:10A8A00005D1E168002901D020798847002007B050
:10A8B000F0BD0000A4220020F435002070B505464C
:10A8C00001461C220E48FDF7ABFC0E4C00262670FC
:10A8D0002968002906D00822201DFDF7A1FC201DB3
:10A8E0007ADF02E00748001D7BDF002807D1401E09
:10A8F00060806670044A00210448FFF7C7FB70BD02
:10A90000E0360020C4220020E1FD010048020200E0
:10A91000F8B5214C028800271E4DE689102A15D073
:10A920001E49112A21D0122A2DD0502A1CD1C288AA
:10A93000801DB24218D1028B022A15D1C27E837EBD
:10A9400010021843C007C00F0CD112E08188698043
:10A9500001461048082216310C30FDF761FC6F707B
:10A96000002E01D100F0CAFDF8BD0020C043688070
:10A970006F700868FFF726FC0028F5D0A169002950
:10A98000F2D08847F8BD811D024808220C30FDF73F
:10A9900047FCE7E7C4220020E0360020480202001E
:10A9A0007CB5054608880C460930904201D90C2038
:10A9B0007CBD684671DF0028FAD1218808206854E0
:10A9C00020881B21401C80B220802954208800A9A7
:10A9D000401C80B22080401906220131FDF720FC86
:10A9E00020886946801D80B220800978002900D027
:10A9F000012129542088401C208000207CBD0000BB
:10AA000010B50446FFF784FF2146064800F040F8E1
:10AA1000204603F0CDF82046FFF7E6FD204600F083
:10AA2000DFF810BD1035002030B5184B0D4604007E
:10AA30000FCB85B003936B4607C324D0002D22D0E3
:10AA40000020C043A0822868A0610020A075214694
:10AA5000684663DF002814D121786846817401219B
:10AA60000182A21C04A90120A0DF002809D12946E7
:10AA7000204604F099FB002803D12946204605F022
:10AA8000A5F805B030BD0E20FBE700004C02020027
:10AA900000281ED000291CD00A88102A14D0112AA0
:10AAA00014D0502A15D1CA88038A891D9A4202D12E
:10AAB0000B8B022B0ED083889A420AD18369002B1C
:10AAC00007D00A8B1A311847898801E00021C94351
:10AAD00081827047CA7E8B7E11021943C907C90F54
:10AAE00000D001218175704707B584B0002806D0D9
:10AAF0006A46128B142A04D9072007B000BD0E2025
:10AB0000FBE70022009201920292039283896A4637
:10AB10001380039106A9029101219170808A6946F0
:10AB2000A6DFEAE71CB5002348221549082004F0F7
:10AB300017FE002803D000221146FFF759F8002025
:10AB40000090694601900870684660DF002803D0D5
:10AB500000221146FFF74CF80A4804F019FE0028BD
:10AB600003D000221146FFF743F8074804F0EEFD3A
:10AB7000002803D000221146FFF73AF81CBD000060
:10AB8000EC26002099F9010001AA01007CB5134EC2
:10AB900000250C463060002918D06946002000F0DE
:10ABA000ABF8002819D101A9012000F0A5F8002870
:10ABB00013D1684601790020002901D0022004E069
:10ABC00069460978002900D00B20207070680028A1
:10ABD00002D1FEF755FF054628467CBD9C22002089
:10ABE00010B51C4C0188606810290DD011290AD1BC
:10ABF000401E606007D1FEF743FF002803D02168A4
:10AC0000002900D0884710BD00281ED10021012254
:10AC1000084600F0A5F8002801D0072811D1072226
:10AC20000221012000F09CF8002801D0072808D15B
:10AC300004220221002000F093F8002805D0072804
:10AC400003D02168002900D088476068401C6060FC
:10AC500010BD00009C220020F8B5074600242348C0
:10AC600002E0641C042C1AD2A2008258BA42F8D125
:10AC7000042C14D21D481E4E0C38002929D001295D
:10AC80000ED002290BD16000201880194578002DC4
:10AC900005D018480169002901D028468847F8BD29
:10ACA00061006118755C8E19717800290CD011490A
:10ACB0000A224968806851430E4A521CFFF744FA41
:10ACC000002801D10B4847700A48B178143001556B
:10ACD000DDE78068FFF776FA0648610061181430F6
:10ACE0008919005D8D78A842D1D0F8BD1802020004
:10ACF000903500208422002004280CD2074A1269D3
:10AD0000074B80001B5C01209840904300D001203D
:10AD10000870002070470020FAE70000000500508E
:10AD20001802020010B5042806D0072810D00A28FF
:10AD300001D104F0F2FC10BD08481321408A76DFEF
:10AD400008E00028F7D000221146FEF751FF10BDA1
:10AD5000FFF7A4FC0828F4D110BD0000002000205B
:10AD600070B50023042811D2440004190D4D012AA6
:10AD700002D101290DD0002246008019094E801908
:10AD800000290CD0012906D0022906D00723184635
:10AD900070BD0D30C2B22A55F9E74270F7E78270F4
:10ADA000F5E700009035002010B5054A0146127AFB
:10ADB0000020D20702D0084600F054F810BD000071
:10ADC0008422002070B50E46204905464E608D60F5
:10ADD00000200A61A9071ED5002401221146204641
:10ADE000FFF7BEFF641C042C02D20028F5D012E04D
:10ADF000002810D1720804211548FEF7BFFE002874
:10AE000009D1FEF7A9FE002805D11148114A0021F9
:10AE10001438FFF73BF9E90706D00F220E49520517
:10AE20008A600023CB608A6100280DD108480B4A54
:10AE300000211C38FFF72AF9002805D10448084AE8
:10AE400001211838FFF722F970BD0000842200208C
:10AE5000280202007DB001000005005089C50100F4
:10AE6000259B0100FEB5804D072269680091E968C5
:10AE700092058A430191009906468B000020C9186B
:10AE800007467A4C3300FEF7B0F9180D19194051F6
:10AE90006073898B9D949DEBA9A9A9A9A9D2D8DE3D
:10AEA000E5EBEB180F21019A49059143E160A7609A
:10AEB00001210906E160A7602F70FEBD07200199FE
:10AEC00040058843E060A76060680F21490548405D
:10AED000C001674809D5A060E760022E02D1E120D9
:10AEE000C0000AE07D20400107E0E060A760022E7C
:10AEF00001D1C82001E0FF2091302E706421FDF7C0
:10AF000035F900994143002243E0A260E7606068A0
:10AF10000F21490548408002564804D5A060E760EB
:10AF200019204001E9E7E060A760E2E7A260E7607E
:10AF300060680F214905484080024E4802D5A06054
:10AF4000E760CFE7E060A760D5E7A260E7606068F0
:10AF50000F21490548408002464802D5A060E760BD
:10AF600001E0E060A7602E7000984100002210E030
:10AF7000A260E76060680F214905484080023D48B3
:10AF800002D5A060E76001E0E060A7602E70009944
:10AF9000002239480068FFF7D7F8FEBD34491AE0AF
:10AFA00061680120800502468A43A2600140E16099
:10AFB000EDE76068012189050A468243A2600840E6
:10AFC000E060E4E762680120800503469343A360E4
:10AFD0000240E260CAE7E160A7602CE026484068D2
:10AFE000FFF7F0F811218A1B01D0002807D00F22AB
:10AFF000E96852051140A160E760EF60FEBD0121E4
:10B00000C905E960012A0BD9C82050436421FDF726
:10B01000ADF869680022414317484068FFF794F88B
:10B020000F22E96852051140E160A760FEBD0F21C3
:10B030004905A160E7602E70FEBD07218905A1606A
:10B04000E7600C49C7E70D214905A160E7600121D0
:10B050008905C0E70321C905A160E7608910BAE747
:10B060000F214905B7E700008422002000050050A9
:10B0700000000001000020000C02020010B5007862
:10B080000221FFF7E9FD10BDF8B5064600250F4F78
:10B0900000682C460090A00038580099FDF7E4F8AD
:10B0A0002946FDF7E1F8641CE4B20546402CF2D3D2
:10B0B0000521C943FDF7ACF901460098FDF7D4F826
:10B0C0000021C943FDF7A4F93060F8BDEC2300204E
:10B0D00010B5002800D0012000F0B6FA10BD000025
:10B0E0000022D243830004490428CA5002D308181E
:10B0F00020300277704700001C370020F0B5002593
:10B10000ED43002A02D00023042601E00423082690
:10B110000B4C04E09F00E7597F1C04D05B1CB3423A
:10B12000F8D32846F0BD26185DB2203635709E0053
:10B13000A151002AF5D1E11820310877F1E700008C
:10B140001C370020024909182020085670470000CB
:10B150001C370020F7B5002782B00E463D4609E0B7
:10B160000298805C0A2801D02E2801D1501EC5B259
:10B17000521ED2B2B242F3D22C4621E0281BFDF778
:10B1800095FA02460B460020104902F0FBFF0090A2
:10B1900002980191005D3038FDF788FA019B009A12
:10B1A000FDF7F4F9009001913846FDF77FFA019B15
:10B1B000009AFDF739F9FDF7BBFA641E0746E4B2C1
:10B1C000B442DBD2384605B0F0BD00000000244098
:10B1D000002806D00449814204D80449884201D29B
:10B1E00001207047002070479C230020AC230020E2
:10B1F000044A0168914201D0083101E0014938391F
:10B2000001607047843900207FB50C46002809D1C1
:10B2100020780009052807D0204D062822D00728CD
:10B2200033D00B2004B070BDA08869460881206926
:10B230000090684604F0A0F8002801D005200BE03B
:10B2400001980123008820810198154A8088A081F7
:10B250001448019900F070FD21780907090F703139
:10B260002170DFE72146104B6A460C31002000F0C8
:10B27000CFFB00280BD020780007000F7030207023
:10B28000094800210160416081602846CAE7012326
:10B29000034A0448019900F04FFDC3E7341200004F
:10B2A000B80202009C2300207438002070B50F4DB6
:10B2B0006A782C78521E1206120E6A7004D10C4A5B
:10B2C000FD26137833401370621CD2B22A70082A0C
:10B2D00001D100222A70FEF7D9FC142044436019E2
:10B2E0001421001DFCF7B5FF70BD0000BC39002023
:10B2F00064230020F8B50C4D069E6C78072C11D005
:10B300002F783C196407640F14277C43641960602C
:10B310002172E3602261A6826878401C687003F0A5
:10B320007BFEF8BD0420F8BDBC390020044A01684A
:10B33000914201D0143101E001498C39016070471C
:10B340003439002010B515480078142148431349BA
:10B35000134CA039411808780007000F0300FDF7CF
:10B3600044FF071B050A0A0E0E121B0000210846A7
:10B3700000F07CFE0AE0002004F080FA06E00020E5
:10B38000FFF742FF02E0002000F05EFD002801D040
:10B39000A04200D1002010BD0F2010BD4839002070
:10B3A0003412000010B5042000F0D2FB002801D0B8
:10B3B000002010BD042000F0D5FBFFF7C3FF10BD37
:10B3C000F8B52348C16800293ED00E6821494C6871
:10B3D0000769C078E11B0D022D0AED1C002814D16D
:10B3E00001201D4A000450601B4A403A50601B492E
:10B3F000400008601A4908601A49012008602F209F
:10B40000FCF788FE12490120C870B54200D23546CB
:10B41000E81900020F4B000A403318600D4A5168CA
:10B42000001B091B0902090A0002000AC91C81420B
:10B4300009D9506818602F20FCF76CFE01200749DD
:10B44000400480390860F8BD03F076FEF8BD0000C6
:10B4500034230020001501404013014080E200E049
:10B4600000E100E000100140F8B5064610881446DF
:10B470008446801D0D46984201D90C20F8BD3288C3
:10B480000720062AFAD31927FF01184BBA4201D91F
:10B490009A42F3D171880629F0D3B94201D9994271
:10B4A000ECD19A4203D0994201D08A42E6D80521D4
:10B4B0006046295420881221401C80B220802954E3
:10B4C0002088401C80B220804119308804F082FC22
:10B4D0002188401880B220804119708804F07AFCDD
:10B4E0002188401820800020F8BD0000FFFF0000E8
:10B4F00010B500221146FEF77BFB10BDF8B51648CB
:10B5000000F05EFF144D00260C3D144C002807D0BF
:10B51000616900291CD001206A461070684616E057
:10B520002878002805D06169002911D06846067086
:10B530000DE0687800280DD0A16809480022006855
:10B54000FEF702FE002803D0A169002900D0884739
:10B550002E70F8BD6168F0E7D0220020E0360020B0
:10B56000480202000E494868C005C00D16D01038C8
:10B5700040B2002807DA0207120F083A9208920038
:10B580005118C96904E08108064A890089180968C8
:10B590008007C00EC1400806800F70470420704726
:10B5A00000ED00E000E400E0F8B500260124154DB0
:10B5B00023E06968F0004718387821462A698140FD
:10B5C000114218D08A432A6101F0E0FC3A78214602
:10B5D000EB68914019400346934099420BD179782A
:10B5E000012901D0012100E000217B684140002BAE
:10B5F00001D010469847761CF6B228788642D8D3F8
:10B60000F8BD00002023002010B50E4900234A7821
:10B610008C78A24212D0521CD2B24A70022A00D1B7
:10B620004B704A78074B920018339A5802600869A9
:10B6300010180002000A0861012010BD03600020FC
:10B6400010BD0000342300207CB5134D002813D01A
:10B65000012004F0CBF804F0FDF80024032000944E
:10B66000234622462146019402F0A8F90121032035
:10B6700001F0EAFBAC727CBD002004F0B7F807488B
:10B680000068FEF79FFD032002F0E0F9032001F0BF
:10B69000B7FB0120A8727CBD0020002058010200E9
:10B6A00070B50178444C562920D02546BC3D4C2924
:10B6B00026D04E2938D050293CD0532940D0572984
:10B6C00044D0412948D04D294CD0422956D04F2949
:10B6D0005AD023295ED024295FD0402968D02A2956
:10B6E00003D10120E87202F0E7FB70BD04220121C2
:10B6F000FFF730FD20600028F7D004F055F970BD49
:10B7000004220121FFF726FDC1B260600020FEF790
:10B7100015FA21790120FEF711FAFF2091306168B6
:10B72000FCF724FD686270BD04220121FFF712FDC1
:10B73000A06070BD04220121FFF70CFDE06070BD28
:10B7400004220121FFF706FD206170BD04220121C2
:10B75000FFF700FD606170BD04220121FFF7FAFCD4
:10B76000A06170BD04220121FFF7F4FCE0612168B3
:10B770000029F6D0C0B200F0DBFF70BD0422012129
:10B78000FFF7E8FC206270BD04220121FFF7E2FC14
:10B79000606270BD03F040FE70BD074A0020283A89
:10B7A0008100401C5358C0B263500928F8D370BDC3
:10B7B00003F084FE70BD0000BC20002008B5002806
:10B7C00007D00089694602F05DFA002803D00B20FB
:10B7D00008BD0E2008BD684600880101034809180D
:10B7E0004889401E4881002008BD00009039002093
:10B7F00070471FB5002A07D0002B05D001A9684665
:10B8000000F006F904B010BD0E20FBE71FB52C4870
:10B810008468022000F09CF9002806D0002223460C
:10B8200001211046FEF71CFA28E0012000F090F9F3
:10B83000002802D0082004B010BD00F039FA00281A
:10B84000F9D1A4211F48FCF704FD1E484421A4306F
:10B85000FCF7FFFC1C490020886003AA694601A888
:10B8600002F044FA694688880978084308D0012024
:10B8700000F078F96846007B002803D00020DAE762
:10B880000420D8E768460078002812D0002302AAD6
:10B890001946012003F014FC002801D01120CAE74A
:10B8A0000298017809090901491C0170FFF77AFD26
:10B8B000C1E7022000F056F9012000F041F9ADE7A0
:10B8C000B4020200A83800205823002038B50D46E5
:10B8D000040009D0002D07D02089694602F0D2F972
:10B8E000002803D00B2038BD0E2038BD204603F0C1
:10B8F00043FD002814D1606800F098FB00280FD0A9
:10B90000684600880101074809184889401C488199
:10B91000626807CA07C560680C302860002038BD1F
:10B92000052038BD90390020F7B500200F4C8EB0AF
:10B930008EB295B2A07001270DE0A77002A906A8EB
:10B94000FFF7C4FF05980E990068086006A8FFF786
:10B9500035FF002808D10AAB06AA29463046FFF772
:10B9600048FF0028E9D0002011B0F0BD00200020E1
:10B9700010B5064A91780A2906D08B00044C491C60
:10B98000E0509170002010BD042010BD582300200D
:10B9900080380020FEB51C4615460E460746FEF7C9
:10B9A000C7FC012100200191009023462A46314620
:10B9B000384604F0FBFA0446FEF7B2FC2046FEBD12
:10B9C000FEB51C4615460E460746FEF7B1FC0020A4
:10B9D0000090019023462A463146384604F0E6FAA4
:10B9E0000446FEF79DFC2046FEBD826883881A400F
:10B9F00003689A5C0A708168491C81607047C2685C
:10BA000083881A4003689954C168491CC160704713
:10BA1000FFB583B01C461646022000F099F80028B6
:10BA200017D0424F60680025B84215D140492068C0
:10BA30008A68824210D8C96881420DD300F0F8FCB0
:10BA4000002809D02068418889000C314018206006
:10BA500066E0082007B0F0BD676025812560684674
:10BA60008580208901A902F00DF968468088314F50
:10BA70000001C119097B0907090F02294DD121686D
:10BA8000002901D020683BE03858103037E00090A2
:10BA900000F0CCFA00282CD003990020002906D011
:10BAA00000990A88039909888A4200D101200499E3
:10BAB00000290AD000998A88049909888A4218D1F5
:10BAC0000399401E014202D013E0002811D06846BD
:10BAD00080880001C01980883081009880683060BB
:10BAE000206870601448B0811448808870810020FC
:10BAF000B0E700982168408880000C30081820606A
:10BB00006946898801220901795892028918884278
:10BB100002D20168491CBAD125602089401C2081CD
:10BB2000208902289BD30520656093E71AE1AB15B5
:10BB30009C230020903900201EF100005823002093
:10BB400002494A7882434A70704700005823002017
:10BB500003494978014201D0012070470020704715
:10BB60005823002002494A7802434A707047000077
:10BB70005823002010B50446C0B2FEF7B7FB20469C
:10BB800010BD0000F8B5314D0846297814232E4623
:10BB90005943A03E8C1921780907090F0B00FDF7C6
:10BBA00024FB07240509090D0D112400114600F09E
:10BBB0005DFA09E0214603F061FE05E02146FFF74A
:10BBC00023FB01E000F040F900283BD022896946C0
:10BBD0000A80A2894A801E49884208D120782269B9
:10BBE0000107090F0020009B0FE00320EEE7174933
:10BBF000627844314B78934202D34B789A1A4A7058
:10BC0000217822690907090F009BFEF729F8287897
:10BC1000142148438019FCF71CFB6878002807D0E2
:10BC20002878401C4007400F28706878401E6870D4
:10BC30006878002803D00748C078002803D0042083
:10BC4000FFF77EFFF8BDFFF77DFBF8BD4839002008
:10BC50003412000058230020F8B506461348154654
:10BC600000780C46C0070AD03046FFF7B1FA00282A
:10BC700007D0A005800DE9B208430CD103E00820ED
:10BC8000F8BD0F20F8BDB068A04204D8A800F16844
:10BC90000019884201D91020F8BD00232246022154
:10BCA00030460095FFF726FBF8BD00006423002016
:10BCB000F8B5002000901B48194D4469601C03D161
:10BCC000012000074069840217481849401A0609F4
:10BCD0003746A4211648FCF7BCFA144900200BE0B3
:10BCE00002015218D368002B04D15279AA4201D222
:10BCF00015460090401C80B28742F1D80098084D4C
:10BD000000014018C46002799202A41A8460761E71
:10BD1000E4D1084801220178114301700020F8BDE8
:10BD2000FFFF000000100010AC2300209C23002027
:10BD3000BC39002064230020F8B5064612481D4691
:10BD4000007817460C46C00707D03046FFF740FA88
:10BD5000002804D0A00704D00BE00820F8BD0F2075
:10BD6000F8BDB068A04204D8A800F1680019884264
:10BD700001D91020F8BD3B462246012130460095EE
:10BD8000FFF7B8FAF8BD00006423002010B51A4A86
:10BD900011788B0729D5194B142419786143C918D8
:10BDA000022808D003281AD15088401C80B2508045
:10BDB000032815D811E000205080087A091D0128B9
:10BDC00001D0022803D1488AFF3001304882488AD6
:10BDD0000A8A904201D3002004E003F01DF910BD4F
:10BDE0000D20091DFFF762FAF7E74807F7D5FB209A
:10BDF00001401170F1E7000064230020BC390020ED
:10BE000070B50F4D04206C68287268882E460001BA
:10BE1000203E31588019C088224680000918608869
:10BE2000C01C83B20748FFF787FF688800018119AB
:10BE3000C88862888018C01CC880002070BD0000BF
:10BE4000B03900209C23002010B5002821D11C48C7
:10BE50000024017A0B00FDF7C8F9083005301F1FD8
:10BE600022252E30174A9188491C9180144A0021BE
:10BE7000203A0B019B181B7B1B071B0F022B09D0C1
:10BE800000234418491C89B263720229F1D300F0DF
:10BE900041F810BD0123F4E700F06CF810BD00F08C
:10BEA00013F810BD07210172408801F0FFFE002841
:10BEB000F7D1204610BD4460E9E7032010BD000023
:10BEC000B039002058230020F8B510490620087228
:10BED00048880C460001203C021996880220107305
:10BEE0000D882B01181987889780078917814D8045
:10BEF0000321017386800421C18000210181FF227A
:10BF0000E15801320248FFF7A7FEF8BDB039002022
:10BF10009C23002070B5134C0021204603460A469E
:10BF2000203B4618757A002D05D00D01ED186D895E
:10BF30007272002D09D0491C89B20229F1D3012166
:10BF4000017202804260084870BD218003210172A5
:10BF50000088064A00011958012305480C31FFF7F3
:10BF6000EBFE70BDB039002034120000B4020200B4
:10BF70009C230020F8B5184D2A46686829882E1D94
:10BF8000203A002804D043889B001C180C3402E09F
:10BF90000801145810340F010F482038C1590120EE
:10BFA00080020818A04210D92068401C0DD02046FD
:10BFB00000F03CF8002803D03460FFF721FFF8BD03
:10BFC0006088800004190C34E6E705202872688830
:10BFD00001F07CFEF8BD0000B0390020F8B507463E
:10BFE000104E0125BD403068FEF7ECF800280DD159
:10BFF0000D4C2069284207D1384600F0C7FF0028C1
:10C00000E06804D0284303E0A8432061F8BDA843BA
:10C01000E0602069002228432061A1683068FEF7B3
:10C0200093F8F8BDAC02020020230020018800290B
:10C0300005D080880349884201D001207047002044
:10C0400070470000FFFF00000748817A002909D1EE
:10C05000016C026B891A642904D3C179491CC1712E
:10C06000016C01637047000000200020F8B5002635
:10C0700000283ED12048002904D00268891A89018D
:10C08000090C491C8CB21D4F1D4D022C26D10220DB
:10C09000FFF768FD0120FFF753FD29E01648210155
:10C0A00008180090007B0007000F012814D12878A1
:10C0B00001260028204605D001F008FE0099022044
:10C0C000087309E001F0F2FD0099032008730120D4
:10C0D0002870094820304480641CA4B2022C02D28B
:10C0E000002EDBD006E0002E04D12878002801D0F5
:10C0F0003846F8BD0020F8BD903900203412000009
:10C1000058230020F8B51E4C2078002837D020692D
:10C11000002807D00026E068002805D00025002E62
:10C1200004D013E00126F6E70125F8E7684651DF61
:10C13000052806D0002806D000221146FDF758FD3C
:10C1400004E0012602E0216900988847002D12D101
:10C15000608869460880A06861DF052806D000284D
:10C1600006D000221146FDF743FD04E0012502E060
:10C17000E168A0688847002ED8D0002DCFD0F8BD48
:10C1800080230020FEB56D48017B002902D1417B50
:10C1900000297DD06948007B002801D0002700E0FD
:10C1A0000127674E002082000021401C80B2B15060
:10C1B0004028F8D363483902081805460623402270
:10C1C0005F49FCF761FD00245D48A60080590146E7
:10C1D000FCF7A3F80090A8590146FCF79EF80099D7
:10C1E000FCF742F8FCF7E6FA03F0DCFAFCF7F6FAA3
:10C1F000641CA4B2A851202CE6D32846202100F0CC
:10C200001FFD4E49504B888202465843C3175B0EB0
:10C2100018184002000CC882019090002858C86588
:10C2200000240090264620460C66B1006958FCF7B1
:10C230001BF8761CB6B2202EF7D3404D0099FCF7C0
:10C2400064F84249FCF7A6F8414906462866884248
:10C2500001DA2C830CE031460098FCF79BF8FCF7E0
:10C26000A9FA00223B4BFCF791F9FCF785FA2883E9
:10C2700032490198498B01914D0037494853009844
:10C28000FCF741FA354948533046FCF73CFA00E0E8
:10C2900050E03349354B48532848018B31484153CE
:10C2A0003148864202DA0120585300E05C5301987D
:10C2B000224E401C80B27083FF2800D97483002076
:10C2C000B0833067F066B066044605460146024614
:10C2D0007066214E6300F65A641C75191F4EA4B295
:10C2E000F65A71181E4EF65AB2181E4EF65A3018EB
:10C2F0001E4EF65A114B9B8BF318104EFF2CB38336
:10C30000E7D90B4634461B1229121212A366E266C5
:10C310000012616620670025A57315A0FCF73EFF9B
:10C32000207C642802D90120A07300E0A573002FAF
:10C3300001D06573FEBD2573FEBD00000020002006
:10C34000EC250020EC23002050C300000000F84141
:10C35000CDCCCC3D0000244048290020482B0020B3
:10C36000482D0020482F002000000C4248310020BA
:10C3700025640A000121814003484068014201D040
:10C3800001207047002070471823002001218140C0
:10C3900003484078014201D00120704700207047D7
:10C3A00018230020014610B501208840FDF7B2FF98
:10C3B00010BD01218140880700D001207047000096
:10C3C000418805480288914204D34088814201D8BF
:10C3D0000120704700207047C82200201048018CBF
:10C3E000C9B2012917D1818C090714D1018D090621
:10C3F0000A0F03D1828D1206120F0ED0090F0129E8
:10C4000003D1828D1206120F07D0032903D1808D2C
:10C410000006000F01D00020704701207047000087
:10C42000C00F00F001218140880400D00120704736
:10C43000800701D0002070470120704770B51B486D
:10C4400001220179002914D0016CC36A184CCD1A5D
:10C450000021A5421ED2C379052B09D3C1700171F9
:10C460004271C171026CC26281620120FDF7E7FA7C
:10C4700070BDC3790D49052B097A01D3002907D076
:10C48000C0790228F4D30129F2D103F041FB70BD39
:10C49000827170BD026CD21AA242FAD9026CD21A11
:10C4A000044B9A42F5D20171C17170BD0020002089
:10C4B000102700003075000030B51588EC1C9C4238
:10C4C00001D90C2030BD02244C5513881C255B1C5F
:10C4D0009BB21380CD5413885B1C9BB21380012840
:10C4E00007D0022807D0032807D0042807D0072048
:10C4F00030BD002004E0012002E0CC5401E0032024
:10C50000C8541088401C1080002030BD70B51C4DF0
:10C510002C46BC3C6868E16B884202D80020C043CE
:10C5200003E0E06B002804DC0120A063607A401C7B
:10C530006072E06BA16B4018E063E07A002809D1DB
:10C54000E06BC1B20020FDF7F9FAE06BC1B2012047
:10C55000FDF7F4FAE868617A400088420ED1E06B9A
:10C5600000280BD16072E063052001F093FA1420DB
:10C5700001F090FA03484068FDF724FE70BD00000A
:10C58000BC2000205801020010B50448017AC907F8
:10C5900002D00078FEF766FC10BD00008422002067
:10C5A000F8B52C49C8680A690C780F7989688646FD
:10C5B000944600913EE00099E20055182A7836E052
:10C5C000182353436968521CC918AB78D2B29342FE
:10C5D00000D100220B78022B02D0032B27D123E0BD
:10C5E0004E680346014603E0B14204D00B46C969D8
:10C5F00000291CD0F8E7002919D08B4208D1C06966
:10C60000002805D1144F0126BE600026B44601273C
:10C610000E68C969D961002909D00B689B190B60A4
:10C6200005E00174C06900E000210028F9D16978B3
:10C630009142C5D12146641EE4B20029BBD105490F
:10C6400062460A61C8600F71704501D00120F8BDD3
:10C650000020F8BD3423002000100140F8B5044646
:10C6600031480026C168009107784EE02E48F90055
:10C6700080680D1843E0002C02D02046E4691FE0DA
:10C680002878182141436A68401CC0B251182870AC
:10C69000AA78904200D12E700A784868012A30D1D9
:10C6A000027C002A2DD18A684260CA6882600A69C9
:10C6B000C260496981611C490979002900D046603E
:10C6C000194943680A699C46991A0902174B090AD5
:10C6D000994202D28268891807E06146511A09021C
:10C6E0008268090A8A4202D9511A016000E0066094
:10C6F0004660012186600174C66103F0A7F9002C31
:10C70000B9D1287869788842BAD138467F1EFFB2FD
:10C710000028ABD10448C1680098814201D00120B3
:10C72000F8BD0020F8BD000034230020FFFF7F008B
:10C73000F8B548490026096A022900D10126454C6E
:10C74000BC3C00281DD001283CD002285BD0032827
:10C7500016D1414F00254048A900A838405820284C
:10C7600071D07958626B5143324601F079FC606BAD
:10C77000C10F0818401000F005FB6D1C0E2DEADB00
:10C78000F8BD344F00257837A9007858002811D01B
:10C79000314A703A5158626B5143324601F060FCA5
:10C7A000606BC10F0818401000F0ECFA6D1C042DEE
:10C7B000EADBF8BD284870384058616B484300F008
:10C7C000E1FAEDE7234F00258C37A900785820289F
:10C7D00011D0214A5C3A5158626B5143324601F004
:10C7E0003FFC606BC10F0818401000F0CBFA6D1CC5
:10C7F000052DEADBF8BD18485C384058616B4843AA
:10C8000000F0C0FAEDE7144F0025483F1148A90099
:10C81000A030405820280FD07958626B51433246DF
:10C8200001F01EFC606BC10F0818401000F0AAFA5E
:10C830006D1C122DEADBF8BD7858616B484300F09F
:10C84000A1FAEFE7FFE77858616B484300F09AFAE6
:10C850008DE70000BC2000204C220020C04888B09A
:10C8600007C804AB07C3FF210131BE480090401840
:10C870000191039102900323BB4A694604A8FDF786
:10C88000E5FC002803D000221146FDF7B1F9B7A05E
:10C89000FCF784FC642000F075FABA4FFF2691364D
:10C8A00030467968FBF762FC3C46BC3C6062FEF7B0
:10C8B00039F90023B44A05210120FDF7FDFB0028CA
:10C8C00003D000221146FDF793F9A548AF4A012194
:10C8D0003038FDF7DBFB002803D000221146FDF7BE
:10C8E00087F99F48AA4A01212C38FDF7CFFB002881
:10C8F00003D000221146FDF77BF902F0ABFF0122C5
:10C9000003210020FDF71CFDA24AA3490120FEF7E8
:10C9100059FA002803D000221146FDF769F969464B
:10C920000020FEF733F9002803D000221146FDF75E
:10C930005FF968460078022859D0002168460171E5
:10C9400001200146103168460172052293A102A818
:10C950007CDF002803D000221146FDF749F90025AD
:10C96000009510216846019501803C214180858019
:10C97000C6807ADF002803D000221146FDF738F97F
:10C980008848009069468848FEF74EF8002803D092
:10C9900000221146FDF72CF9FDF790F8012183489C
:10C9A0000906C160002585601C216846FBF751FC23
:10C9B0000520800301900F20C003029000950F21F5
:10C9C00068460173C58105747948059079480690D9
:10C9D0006846FDF773FF002803D000221146FDF7DB
:10C9E00007F97548FEF7C4FF00280AD101E00121CC
:10C9F000A4E7FEF70BFF050070481ED000F0C2F957
:10CA0000284600221146FDF7F3F8052001F01EF834
:10CA1000142001F01BF800255A48AE002830825936
:10CA200028308159F019FEF77FFF0090642000F054
:10CA3000A9F9A078002803D006E000F0A3F9E4E704
:10CA4000504828388059B85100980028E4D16D1C0E
:10CA5000EDB20A2DE0D3FCF779FA59A0FCF79EFB62
:10CA6000642000F08FF97D25ED006E1040BF20BFDF
:10CA700020BFA079002830D12946206CFBF776FB37
:10CA8000226AE123821AB8691B015843824202D903
:10CA9000207A002821D0A07B002802D0607A0028CC
:10CAA00020D06079002825D048DF002803D000225C
:10CAB0001146FDF79DF8E0780028D7D042A0FCF79A
:10CAC0006DFB642000F05EF90020FCF7B8FF002049
:10CAD000207160710120A071C8E70020A07102F0F0
:10CAE0008DFDC3E70020FEF7F3FA01F0E5F9002021
:10CAF000A073BBE7FFF7A2FCE079052807D0206C04
:10CB0000216B401AB04202D9207A012809D0E0797D
:10CB1000052815D0E079002812D0207A002808D006
:10CB20000EE00020E071284600F02CF902F066FDCE
:10CB300006E0206C216B401AB04201D90020E07160
:10CB4000E079002892D1207A00288FD160790028DE
:10CB50008CD12079002889D1FFF714FB86E70000EB
:10CB600088010200482700206DFC010053746172A7
:10CB70007420636F6E66696775726174696F6E2E7B
:10CB80002E0A0000BC2000204833002075CC010094
:10CB90000DC5010025AD01006606000050616C69FD
:10CBA00073000000D5DA01001035002000050050A8
:10CBB00035DC0100F1B40100F1B70100D00700003D
:10CBC00053746172740A0000646973636F6E6E65FA
:10CBD0006374696E6700000070B5144682880E4663
:10CBE00005462088111D4118921C994201D8FE2A41
:10CBF00001D90C2070BD521C32542088FF21401CEA
:10CC000080B2208031542088401C80B2208081195D
:10CC1000288803F0DFF82188401880B22080AA8895
:10CC2000002A09D0A968002908D08019FBF7F8FA72
:10CC30002088A98840182080002070BD072070BD82
:10CC4000FEB50546006800260F46012400900CE062
:10CC5000A000019028580099FBF7DCFD03D2019851
:10CC6000264628580090641CA4B2BC42F0D330463B
:10CC7000FEBD00000248016C491C016470470000C1
:10CC800000200020F8B50F4601781446054601291A
:10CC900002D16878002806D02088821C9A422DD8BC
:10CCA000012902D006E00720F8BD69784118891CE7
:10CCB000994223D8181A801E86B2684606802188B9
:10CCC000B81C081869467DDF0028EDD128780228B5
:10CCD00005D169460988B14201D809210AE0082135
:10CCE000012805D16878B04202D86A46108001E078
:10CCF0006846068068460088FE2801D90C20F8BDE9
:10CD00002288401CB8542088401C80B220803954AE
:10CD100020886946401C2080098840182080002017
:10CD2000F8BD000010B501788A074178920F4907D5
:10CD3000C90E406811438207540E0C438103890FCA
:10CD400003D00321090408400443002000F00AF83E
:10CD500003494868FF22120210402043486010BD7A
:10CD60000075004010B5064902024B68FF242402FA
:10CD7000A3431A434A60002800D00120086010BD78
:10CD80000075004031B5054C04E0401E009020467F
:10CD9000FBF7B0F900980028F7D138BDE703000091
:10CDA0008207D30EFF229A408907090E10B59940D9
:10CDB00000280BDA03071B0F083B9C080C4BA40050
:10CDC000E318DC6994430C43DC6107E08408094BF9
:10CDD000A400E418236893430B432360C106C90EE3
:10CDE00001208840044908600449086010BD000023
:10CDF00000ED00E000E400E080E200E000E100E09F
:10CE000010B5044601F040F8002804D00021204667
:10CE100000F030FE10BD204601F042F80028F9D0A5
:10CE20002046FEF78FF90649820051180A69520818
:10CE300052000A61012181400248816010BD00005A
:10CE40000065004000630040F3B581B00F460198D3
:10CE500001F01AF8012400281E4E019817D0FEF7A1
:10CE600071F980192030007F8009032802D0012841
:10CE700006D007E01848006901998C40204201D192
:10CE8000022100E00321019800F0F4FDFEBD01F055
:10CE900007F80028FAD00198FEF754F905468100FA
:10CEA000C81D0E4AF93089180A6980B222430A6106
:10CEB0000B49401800210160002FE7D00198FEF7D0
:10CEC00041F9800030580028E0D00648AC4044606A
:10CED000FEBD00001C37002000050050006500402A
:10CEE0000060004000630040FEB5044623480E4643
:10CEF0000019202141560027C8171346401C01D0B5
:10CF0000082738E0F27819462046FEF7F7F805467C
:10CF1000401C2FD0B078002807D01948A10009186C
:10CF2000086802229043086007E0002173782046D9
:10CF300000910A46019100F053FDF078002810D0CE
:10CF40001048AA001018317802690F4B1A4002618C
:10CF5000E206D20C8907890B0A4301690A43026180
:10CF600009E00648327840192030017F92011143D0
:10CF7000017700E004273846FEBD00001C37002082
:10CF80000007005000650040FFE0FCFF034909690D
:10CF9000C140C807C00F00D00120704700050050F5
:10CFA00070B5124D2879002801D0082070BD0F49B6
:10CFB00000204039421E0B182033401CC0B21A70AA
:10CFC0002028F8D300242046FEF78AF8641CE4B237
:10CFD000082CF8D303210620FFF7E2FE01200449C4
:10CFE000C007486001202871002070BD5C37002018
:10CFF0000063004002480079002800D001207047FB
:10D000005C370020FEB5044620480D460019002676
:10D0100020308157491C01D0082633E0A978002927
:10D020001DD0012200212046FEF768F8411C14D0D3
:10D03000830017482A78181869780369154F3B4010
:10D0400003610369E706FF0C9207920BC907C90A3F
:10D050003B430A431343036104E0042612E0012129
:10D06000C94301706A780120A0400B49012A0BD006
:10D07000C860002100910B46012201912046114613
:10D0800000F0AEFC3046FEBD8860F2E71C370020A1
:10D0900000650040FFE0ECFF0005005010B5FEF712
:10D0A00051F880060149000E401810BD0060004094
:10D0B00009490918202008568100084809180869FC
:10D0C000032210431F22120202430A6100BF00BF65
:10D0D00000BF0861704700001C3700200065004059
:10D0E000002900D00121074A121820201056820082
:10D0F00005481218106901231B05984309050843C8
:10D10000106170471C3700200065004010B50446D0
:10D1100000F0C6FE00280DD02046FEF713F8C0B27E
:10D12000FDF7DEFF2046FEF70DF8074A00218000DC
:10D1300080180161054800210019C94320300170A1
:10D14000204600F071FC10BD006500401C37002037
:10D15000F1B5042082B0204E0025009000206946E1
:10D160000871FEF7FFF90746012809D001A836DF4C
:10D1700002280FD0002803D000221146FCF738FD0A
:10D180000124AC4034420FD02846FFF7F3F80028C2
:10D1900002D009E072B6F3E71048416821434160CC
:10D1A0000298057000200090012F0BD062B66846EF
:10D1B000007937DF022805D0002803D0002211466D
:10D1C000FCF716FD0098002804D06D1CA643EDB2B4
:10D1D000002EC3D1FEBD0000FF3F00001823002039
:10D1E00070B514460D00064611D0002C0FD0FFF785
:10D1F00019F900280DD03046FFF7BCF800280AD0F6
:10D200000648F100081805614461002070BD0E2039
:10D2100070BD072070BD082070BD000000F5014002
:10D2200010B50446FFF7BEF800280FD02046FFF7E0
:10D23000F9F8002804D02046FFF79CF8002807D012
:10D2400001200449A0408860002010BD072010BDC7
:10D25000082010BD00F5014010B50446FFF7A2F804
:10D2600000280FD02046FFF7DDF8002804D0204624
:10D27000FFF780F8002807D001200449A04048604B
:10D28000002010BD072010BD082010BD00F5014092
:10D2900038B50546FFF7C6F8002829D001241648FE
:10D2A000AC408460002069460870FEF75BF90546D3
:10D2B000012809D0684636DF02281BD0002803D099
:10D2C00000221146FCF794FC0C484168A1434160E0
:10D2D000012D0BD062B66846007837DF022805D0F2
:10D2E000002803D000221146FCF782FC002038BD44
:10D2F000072038BD72B6E7E700F50140182300208B
:10D30000F8B506460C460846FFF753F8002833D018
:10D310002046FFF73BF800282CD03046FCF7FAFFF8
:10D32000002829D0002069460870FEF71BF9054641
:10D33000012809D0684636DF02281FD0002803D014
:10D3400000221146FCF754FC0D48A10008180168A2
:10D3500031430160012D0BD062B66846007837DF9B
:10D36000022805D0002803D000221146FCF740FC1B
:10D370000020F8BD0820F8BD0720F8BD72B6E3E72D
:10D3800000F80140F8B506460C460846FFF711F8CC
:10D39000002833D02046FEF7F9FF00282CD0304675
:10D3A000FCF7B8FF002829D0002069460870FEF776
:10D3B000D9F80546012809D0684636DF02281FD073
:10D3C000002803D000221146FCF712FC0D48A100F2
:10D3D00008180168B1430160012D0BD062B66846A0
:10D3E000007837DF022805D0002803D0002211463C
:10D3F000FCF7FEFB0020F8BD0820F8BD0720F8BDB3
:10D4000072B6E3E700F80140F1B5042082B00326CC
:10D4100000250090002069460871FEF7A3F8074632
:10D42000012809D001A836DF02280FD0002803D038
:10D4300000221146FCF7DCFB0124AC40344210D042
:10D440002846FEF7A3FF002802D00AE072B6F3E7F1
:10D450000F48214642781143417002980570002020
:10D460000090012F0BD062B66846007937DF0228A2
:10D4700005D0002803D000221146FCF7B9FB009824
:10D48000002804D06D1CA643EDB2002EC2D1FEBD13
:10D490001823002010B50446FEF78BFF00280BD0A0
:10D4A0002046FEF773FF002808D0054A0120E1005E
:10D4B00089180860002010BD072010BD082010BD8D
:10D4C00000F00140F8B50446FEF773FF002830D0A5
:10D4D0002046FEF75BFF00282DD019490126E00009
:10D4E00040184660002069460870FEF73BF8054684
:10D4F000012809D0684636DF02281ED0002803D054
:10D5000000221146FCF774FB0E48A6404178B14357
:10D510004170012D0BD062B66846007837DF0228D3
:10D5200005D0002803D000221146FCF761FB002043
:10D53000F8BD0720F8BD0820F8BD72B6E4E700008A
:10D5400000F001401823002004480178002901D090
:10D5500085207047012101700020704718230020AA
:10D5600015220068890092018918405870470268A6
:10D5700088004030C0B21018704700680121C160B7
:10D58000704770B5012424048C40032605683602D8
:10D59000AD19002B01D06C6000E0AC600068890020
:10D5A0000818052109024018026470BD026888004D
:10D5B000FF30413080B2101870470268012000042B
:10D5C0008840032109025118886070478A0010B50D
:10D5D000FF324132036892B200249C50026801205D
:10D5E00000048840032109025118486010BD000062
:10D5F0000268012111614079014A1154704700000D
:10D6000004230020016801220A604079014A0221B6
:10D610001154704704230020F0B5FF25023504683B
:10D620008D40FF34FF340234059E2768AF432760E6
:10D630000468FF34FF34023425681D4325603346F7
:10D64000FFF79FFFF0BD0000F8B504464079254F75
:10D650000D46395C1646002901D00820F8BD002D82
:10D6600002D12149C000451820492068884236D09F
:10D670000420E9782056FFF793FB6179194A890065
:10D680000C3268685050002E29D060791146800015
:10D6900008390E5005202268000212186978536874
:10D6A000C9075B085B00C90F0B4353602168AA7868
:10D6B00009188B6892079B089B00920F13438B609D
:10D6C00021682A7808180169120709090901120F4F
:10D6D000114301616179012078540020F8BD0720D1
:10D6E000F8BD0000042300209C02020000800040DE
:10D6F000F8B500250E4604462F46A800FF304130FD
:10D7000080B22158002910D001210904A940032228
:10D710001202A21852680A4207D02750B2000549E7
:10D72000044B8958083B9A5890476D1C042DE4D34C
:10D73000F8BD00001023002070B503460079C10633
:10D74000C90E012088401249086058791149002407
:10D7500080000C501846FFF74BFF18680E49FF3049
:10D76000FF30023002688A43026001220020120466
:10D770000326360211461D688140AD19A960401C80
:10D780000428F7D303495879091F0C5470BD0000D1
:10D7900080E100E0082300200F0F00000122006854
:10D7A000052352021B02C0180069C2404A435009B7
:10D7B00070470000F3B50446244881B0807D0028FE
:10D7C00001D00820FEBD002C00D1214C206800F0C3
:10D7D00047F92078012739461E4E8140B16000216B
:10D7E000606800F02AF91C4DA0696862607D217DA7
:10D7F0000843E86603CCE8606961207B083C0128A7
:10D800000ED10021A06800F018F9E06800F028F9B6
:10D81000207B39468140B160E168A068A960286139
:10D820000A4E0298706021693160002806D00C4AC7
:10D83000217F0A4850600220FFF7B2FA04202860D6
:10D840000020F074B074B7757075FEBD64370020A9
:10D850007C0202000005005000250040800002000C
:10D8600000230040F8B5294DEA7C002A01D01120A0
:10D87000F8BDE974E86000202875687D002801D1B2
:10D8800001F0F2FC6868224C002805D08120214973
:10D89000800048600020F8BDFF212531204600F0BF
:10D8A0000BF90546FF210931204600F005F907462E
:10D8B000FF214531204600F0FFF806463946314346
:10D8C0002943E9D02846304306D101F057FC0F48E0
:10D8D000C17C007D8142DFD8FF21453100206050AE
:10D8E000FF21253160500949002DC87401D0032063
:10D8F000F8BD002E01D00F20F8BD497D0120002980
:10D9000001D02060C6E76060C4E7000064370020F3
:10D91000002000400023004010B5044C607D00282A
:10D9200003D101F0A1FC0120607510BD6437002017
:10D93000F8B5204C0026A27C002A01D01120F8BDA9
:10D94000A174A060002020821B4DFF271D37E851E5
:10D950000120A86002F024F96168002911D024E0B8
:10D96000FF2701372946144800F0A6F8002802D105
:10D97000208AB842F6D1208AB84203D002F010F9CA
:10D9800000E03D46A07C218A8842E9D8218AC81F50
:10D99000F9380CD0084F2946384600F08DF8002899
:10D9A000F9D00120F8600020A0743046F8BD0F26A1
:10D9B000F9E70000643700200020004030B5520035
:10D9C0000A439900039C0A432102049D0A43290447
:10D9D0000A43024980004018026030BD0007005031
:10D9E00030B552000A439900039C0A432102049D6A
:10D9F0000A4329040A43024980004018026030BDEE
:10DA00000007005030B552000A439900039C0A43B6
:10DA10002102049D0A4329040A4302498000401858
:10DA2000026030BD000700501CB5002100910B467C
:10DA300001220191FFF7D4FF1CBD1CB500220B464B
:10DA4000009211460192FFF7DDFF1CBD1CB50021BD
:10DA500000910B46012201911146FFF7AFFF1CBD5B
:10DA60001CB5002100910B46012201911146FFF7E0
:10DA7000C9FF1CBD820006481018026803231B045E
:10DA80009A430260026809040A430260704700007A
:10DA9000000700500121814001488160704700006B
:10DAA00000050050034940180068012800D00020FC
:10DAB00070470000006000404058002800D001205E
:10DAC00070470322120280184068084000D00120ED
:10DAD0007047000010B50020074B02E00C5C1C549E
